:020000040800F2
:100000009007002029020008AB1B0008ED1900082A
:10001000A91B00081F040008951E0008000000002E
:10002000000000000000000000000000AF1B0008FE
:10003000B904000800000000AD1B0008B11B000857
:10004000430200084302000843020008430200087C
:10005000430200084302000843020008430200086C
:10006000430200084302000843020008430200085C
:10007000430200084302000843020008430200084C
:10008000430200084302000843020008430200083C
:10009000210400084302000843020008430200084C
:1000A000430200084302000843020008430200081C
:1000B000430200084302000843020008430200080C
:1000C00043020008430200084302000843020008FC
:1000D00043020008891E000843020008430200088A
:1000E00043020008430200084302000843020008DC
:1000F00043020008430200084302000843020008CC
:1001000043020008430200084302000843020008BB
:1001100043020008430200084302000843020008AB
:10012000430200084302000843020008430200089B
:10013000430200084302000843020008430200088B
:10014000430200084302000843020008430200087B
:10015000430200084302000843020008430200086B
:10016000430200084302000843020008430200085B
:100170004302000843020008430200080000000098
:10018000430200084302000800F002F800F03CF8C7
:100190000AA090E8000C82448344AAF10107DA45E2
:1001A00001D100F031F8AFF2090EBAE80F0013F0F8
:1001B000010F18BFFB1A43F001031847781D000018
:1001C000981D0000103A24BF78C878C1FAD85207A9
:1001D00024BF30C830C144BF04680C6070470000C1
:1001E0000023002400250026103A28BF78C1FBD840
:1001F000520728BF30C148BF0B6070471FB501F0E0
:1002000087FE1FBD10B510BD00F0CFF81146FFF7F7
:10021000F5FF01F051FE00F0EDF803B4FFF7F2FF37
:1002200003BC00F0F5F80000094880470948004782
:10023000FEE7FEE7FEE7FEE7FEE7FEE7FEE7FEE796
:10024000FEE7FEE704480549054A064B70470000F3
:100250004D1C000889010008900100209007002033
:10026000900300209003002053EA020C00F0698004
:100270002DE9F04B4FF00006002B1FBFB3FA83F5BA
:1002800003FA05F424FA05F65E4012BF1643B2FAEB
:1002900082F502FA05F4C5F120051EBF22FA05FC1D
:1002A00044EA0C04203556EA044C4FEA144418BFC3
:1002B000641C4FF000084FF00009904271EB030CF2
:1002C00039D3002919BFB1FA81F701FA07F6B0FA5C
:1002D00080F700FA07F6C7F120071EBF20FA07FCD7
:1002E00046EA0C062037B6FBF4FCA7EB0507103FE7
:1002F00007F01F0BCBF120060CFA0BFB2CFA06F6CD
:1003000044BFB3460026202FA4BF5E464FF0000B2B
:100310005BEA060C08BF4FF0010B19EB0B09ABFBB6
:10032000027C48EB0608C01B06FB02CC0BFB03CC8F
:1003300071EB0C01C1E70B46024641464846BDE859
:10034000F08B13B54FF000004FF00001AFF30080C9
:10035000BDE81C4070474FF0000200B513469446BC
:100360009646203922BFA0E80C50A0E80C50B1F10D
:100370002001BFF4F7AF090728BFA0E80C5048BF21
:100380000CC05DF804EB890028BF40F8042B08BFBF
:10039000704748BF20F8022B11F0804F18BF00F8BB
:1003A000012B7047704770477047754600F02CF876
:1003B000AE4605006946534620F00700854618B052
:1003C00020B5FFF73FFFBDE820404FF000064FF09B
:1003D00000074FF000084FF0000B21F00701AC467A
:1003E000ACE8C009ACE8C009ACE8C009ACE8C00999
:1003F0008D46704710B50446AFF300802046BDE837
:100400001040FFF70ABF000000487047300100208D
:1004100001491820ABBEFEE7260002007047FEE748
:10042000014800F0C8B900002800002010B51048AD
:10043000002401214461C0E906418460C4600E22A9
:100440000461C0E9081201460A4800F0B9F80849F9
:10045000084800F0B5F808B100F02FF8044840F261
:1004600001212830846001600821C0E9034110BDEA
:10047000EC0000202800002086B00D4800F026FB8C
:100480004FF4007000900020029003900820049028
:10049000FFF7CCFF0221064800F011F8044800F0F5
:1004A00077FB2346034A6946014800F01AF8F8E74B
:1004B0002800002010000020704772B6FEE790F878
:1004C0002020012A07D0022A05D0416A41F4802168
:1004D000416201207047006842690A43426100207E
:1004E0007047F0B590F820500468A468012D05D03D
:1004F000022D03D0416A41F480215DE014F0406F89
:1005000001D1E50055D5C4F30164022C03D9416A39
:1005100041F4000150E00125A5401D608D684FF4B5
:10052000C0739DB1CE6835434E6845EAC60506687E
:1005300003EB0417F5514FF4C275076805EB04157A
:100540000E697E51097D012905D009E00E88CD682C
:1005500045EA4655EBE701684E5946F480764E5120
:100560001179D579567941EA056195792D0445EAE5
:10057000062529434FF4C676056806EB0416A951F3
:100580001178D57841EA0561957852782D0445EACD
:10059000022211434FF4C475026805EB0415515152
:1005A000006803EB0411425842F00102425000205F
:1005B000F0BD416A41F4001141620120F0BD00002C
:1005C00010B590F82020012A07D0022A05D0416AF0
:1005D00041F480214162012010BD3B48D0F8002247
:1005E00042F00102C0F80022D0F8002222F47C522E
:1005F000C0F80022D0F800224B6A42EA0322C0F879
:1006000000220A7D02F01F0301229A40D0F81C321A
:100610009343C0F81C32CB69B3B9D0F80C32934382
:10062000C0F80C328C894B6864F31F434C6900EBB3
:10063000C404C4F840320C890B6864F31F434C694E
:1006400000EBC404C4F84432CB69012B16D1D0F8B6
:100650000C321343C0F80C320C884B6864F31F4310
:100660004C6900EBC404C4F840320C89CB6864F3D5
:100670001F434C6900EBC404C4F844328B69002B5F
:10068000D0F804320ED01343C0F804320B69002BAB
:10069000D0F8143208D01343C0F81432096A012983
:1006A00004D008E09343EFE79343F5E7D0F81C123A
:1006B0001143C0F81C12D0F8001221F00101C0F85B
:1006C0000012002010BD000000640040704730B5EB
:1006D00090F82040012C05D0022C03D0416A41F44F
:1006E00080215DE00468002955D02469A40754D016
:1006F0004FF4D874056804EB01142D5915F0040566
:10070000956005682D594ED0ED08556005682C5947
:1007100004F00204D4604FF4DA74056804EB0114A9
:100720002D5905F00F05156105682D59C5F30725ED
:10073000956105682C59240C54614FF4DC720468EF
:1007400002EB0112A4581C700468A458240A5C70BF
:100750000468A458240C9C700468A258120EDA7025
:100760004FF4DE72046802EB0112A4581C71046895
:10077000A458240A5C710468A458240C9C71046871
:10078000A258120EDA71006881B1016941F02001AE
:100790000161002030BDE468A8E7416A41F400111E
:1007A0004162012030BD6D0D1560AFE7C16841F0B9
:1007B0002001C160EDE72DE9F05F054600680024E7
:1007C0004669D0F804908768D0F80CB0D0F810A033
:1007D000D0F81880F10748D0F90714D001218160C2
:1007E000B80703D5284600F000FA0CE0780702D5D8
:1007F0004FF4006407E0380702D54FF4805402E05C
:10080000284600F0F1F9F80516D529684FF48070F4
:100810008860B80503D5284600F0E9F90CE07805B2
:1008200002D544F4005407E0380502D544F480446E
:1008300002E0284600F0DAF9F80316D529684FF4EB
:1008400080308860B80303D5284600F0D2F90CE068
:10085000780302D544F4004407E0380302D544F499
:10086000803402E0284600F0C3F9300707D55FEA7C
:10087000CB6004D52968102044F40074C860700768
:100880004FF0080707D55FEA0B7004D52868C760EA
:10089000284600F04FF9B00706D52868C0688007E1
:1008A00002D0284600F048F9700607D55FEACA6012
:1008B00004D52968102044F480640861B00607D587
:1008C0005FEA0A7004D528680761284600F05CF9E1
:1008D000F00606D528680069800702D0284600F097
:1008E00054F9B00308D55FEAC96005D5296810201E
:1008F0004860284600F04AF9F00307D55FEA09701E
:1009000004D528684760284600F074F9300446D5BD
:100910005FEA497040D5F00504D55FEAC87001D0A0
:1009200044F00104B00504D55FEA887001D544F0B5
:100930000204700504D55FEA487001D544F0040450
:10094000300529D518F0700F26D008F07000402827
:1009500015D006DC102809D020280AD0302816D15E
:100960000AE050280ED0602811D10EE044F00804AF
:100970000DE044F010040AE044F0200407E044F0E5
:10098000400404E044F0800401E044F480742868EA
:10099000816921F070018161296804204860002C80
:1009A00005D0686A204368622846FFF78FFEBDE8DD
:1009B000F09F70B5040003D094F8200010B104E05B
:1009C000012070BD204600F081F82068016841F0E8
:1009D0000101016000F07AFA0546052604E000F006
:1009E00075FA401B0A2811D820684068C007F6D065
:1009F0002068016821F00201016000F067FA0546F5
:100A00000BE000F063FA401B0A2806D9606A40F444
:100A10000030606284F82060D2E720684068800778
:100A2000EFD4207E0128206801683DD021F08001AC
:100A30000160607E01282068016838D021F0400103
:100A40000160A07E01282068016833D021F02001D8
:100A50000160E07E0128206801682ED041F010017D
:100A60000160207F01282068016829D021F0080159
:100A70000160607F01282068016824D021F0040112
:100A80000160D4E902010843D4E904121143084388
:100A90006168491E08432168C86100206062012026
:100AA00084F82000002070BD41F08001C0E741F0D3
:100AB0004001C5E741F02001CAE721F01001CFE76E
:100AC00041F00801D4E741F00401D9E710B586B040
:100AD000044614216846FFF73EFC1349206888420B
:100AE0001FD112480021026842F0007202600068C3
:100AF00000F0007005900D481038026842F00802BE
:100B000002600068022200F0080005900320CDE991
:100B10000210CDE90002092004906946044800F063
:100B2000D7F806B010BD0000006400404038024015
:100B3000000C02407047000010B50F4A0168914256
:100B400019D10E4B0E4A0021FFF7C1FD0B48018859
:100B50004ABA00F108010A80428852BA4A80828863
:100B600052BA8A808079C8800022BDE810400121F5
:100B7000044800F0A5B910BD006400401800002032
:100B800014010020001002407047704770470000B9
:100B900070B5044690F82000012804D0606A40F443
:100BA0000020606218E0022084F8200020680168BC
:100BB00021F00101016000F089F905460EE000BF57
:100BC00000F084F9401B0A2808D9606A40F400301C
:100BD0006062052084F82000012070BD2068406814
:100BE000C007EDD1606270BD7047704770477047B5
:100BF0007047704770472DE9F0410446876D00F05B
:100C000065F9064694F835000025022806D08020B4
:100C1000606584F834500120BDE8F08120680168E7
:100C200021F0160101602068416921F080014161D5
:100C3000206C08B9A06C20B12068016821F008017F
:100C400001602068016821F0010101600CE000F002
:100C50003DF9801B052807D920206065032084F812
:100C6000350084F83450D7E720680068C007EED11B
:100C700094F85C103F208840B860012084F835006B
:100C800084F834500020C7E790F83510022903D0CB
:100C90008021416501207047052180F835100068EA
:100CA000016821F0010101600020704770B5044621
:100CB00000F00CF90546601C02D00448007804449A
:100CC00000F004F9401BA042FAD370BD00000020E0
:100CD0002DE9F84FDFF8BCA1002201250AF1040B31
:100CE00003264FF00F090BF1040E00BF0B6805FA45
:100CF00002F42340A34270D10F7907F00307012FBC
:100D000001D0022F16D187684FEA420806FA08FC84
:100D100027EA0C07D1F80CC00CFA08FC4CEA070CC7
:100D2000C0F808C04768A7430C79C4F30014944086
:100D30003C4344600C79E443A4070AD0C4684FEAFA
:100D4000420C06FA0CF7BC438F6807FA0CF72743EE
:100D5000C7600C7904F00304022C12D1D40800EB14
:100D6000840CDCF820405707FF0E09FA07F824EA44
:100D70000804D1F8108008FA07F848EA0408CCF80B
:100D8000208004684FEA420C06FA0CF7BC430F7946
:100D900007F0030707FA0CF7274307604C6814F4C1
:100DA000403F70D03C4C276847F480472760246858
:100DB00022F0030704F480440094384C07EB040C41
:100DC000DCF8084897074FEA177809FA08F7BC4398
:100DD000334FB84202D1002724E054E0314FB842EB
:100DE00001D101271EE0304FB84201D1022719E09E
:100DF0002E4FB84201D1032714E02D4FB84201D144
:100E000004270FE02B4FB84201D105270AE02A4FF3
:100E1000B84201D1062705E0284FB84201D1072783
:100E200000E0082707FA08F72743CCF80878DAF833
:100E300000405746D1F804C09C435FEACC3C00D543
:100E40001C433C60DBF800405F46D1F804C09C4383
:100E50005FEA8C3C00D51C433C60DEF800407746DE
:100E6000D1F804C09C435FEACC2C00D51C433C6005
:100E7000084F0C373C68D1F804C09C435FEA8C2CC7
:100E800000D51C433C60521C102AFFF42FAFBDE874
:100E9000F88F0000003C014044380240003001401F
:100EA000000002400004024000080240000C024022
:100EB000001002400014024000180240001C0240D2
:100EC0000AB1816170470904FBE7000001488068AE
:100ED0007047000000000020024881680278114439
:100EE00081607047000000200B4810B5016841F494
:100EF00000710160016841F480610160016841F4A2
:100F000080710160032000F06FF80F2000F006F8F8
:100F100000F024F8002010BD003C024070B50D4DDB
:100F200004464FF47A712878B1FBF0F00A49096859
:100F3000B1FBF0F000F09EFB48B9102C07D2002264
:100F40002146501E00F030F800206C6070BD01207A
:100F500070BD0000000000200C0000200A4808B509
:100F6000016841F480410160006800F48040009015
:100F70000548001F016841F080510160006800F0E1
:100F80008050009008BD000044380240002809DB72
:100F900000F01F02012191404009800000F1E02093
:100FA000C0F8001170470000F0B40E4B1B680C46EF
:100FB000C3F30223C3F10705042D00D90425191D2D
:100FC000072901D2002300E0DB1E012606FA05F105
:100FD000491E214099409E40761E16403143F0BC88
:100FE00000F059BF0CED00E0064900F00702086868
:100FF0004FF6FF03184040EA0220034A10430860FE
:10100000704700000CED00E00000FA052DE9F04704
:101010000E46050065D0DFF81481D8F80000F7B25D
:1010200000F00700B04207D288F80070D8F800003E
:1010300000F00700B04254D128683D4C810712D51A
:10104000400703D5206840F4E0502060287800076E
:1010500003D5206840F4604020602068A96820F033
:10106000F000084320602878C0072DD03049686818
:101070000839012812D0022813D0032811D009689A
:10108000890700292DDA216821F00301014321603D
:10109000FFF71CFF814641F2883A0EE00968890398
:1010A000EFE709688901ECE7FFF710FFA0EB090102
:1010B000514502D90320BDE8F0872068696800F037
:1010C0000C00B0EB810FEFD1D8F80010404601F0D2
:1010D0000701B14207D90770006800F00700B0426D
:1010E00001D00120E7E72878400705D52068E968A6
:1010F00020F4E050084320602878000706D52068D7
:10110000296920F4604040EAC100206000F038F80E
:101110002168084AC1F30311515CC84006490860C0
:1011200006480068FFF7FAFE0020C4E7003C0240D2
:10113000083802401A1F00080C000020040000209C
:101140000448054900680968044AC1F38221515CDA
:10115000C84070470C000020083802402A1F0008D1
:101160000448054900680968044AC1F34231515CEA
:10117000C84070470C000020083802402A1F0008B1
:10118000154810B5006810F00C02144813D014492B
:10119000042A0FD0082A0ED10F4C241F226823687E
:1011A00002F03F025B0207D52068C0F38810A0FB65
:1011B000010106E0084610BD2168C1F38811A1FBBA
:1011C00000010023FFF750F82168C1F30141491CD9
:1011D0004900B0FBF1F010BD083802400024F400D3
:1011E00040787D012DE9F84F04006ED02078DFF8BB
:1011F0004C93C007A9F104054AD009F10400016825
:10120000C1F38101012908D00068C0F381000228E0
:101210000AD1D9F80000400206D52868800337D5E6
:1012200060680028E1D033E06068B0F5803F10D0FE
:10123000B0F5A02F286810D020F4803028602868EE
:1012400020F4802028606068A8B1FFF73FFE0646C2
:101250000DE0286840F48030F4E740F480202860F6
:10126000F7E700BFFFF732FE801B642873D82868B9
:101270008003F7D50CE0FFF729FE064605E000BF26
:10128000FFF724FE801B6428F0D828688003F7D479
:101290002078DFF8AC8280074FF0000A3ED5A748DF
:1012A000001D016811F00C0F08D00068C0F3810028
:1012B00002280BD1D9F80000400207D42868800723
:1012C00016D5E068012800D112E033E1E068B8B13A
:1012D0000120C8F80000FFF7F9FD064605E000BF51
:1012E000FFF7F4FD801B0228C0D828688007F7D5D7
:1012F0002868216920F0F80040EAC10028600DE06C
:10130000C8F800A0FFF7E2FD064604E0FFF7DEFDA7
:10131000801B02281FD828688007F7D42078000790
:1013200022D5864F87486169703771B1012101600C
:10133000FFF7CCFD064604E0FFF7C8FD801B02283E
:1013400009D838688007F7D50EE0C0F800A0FFF78D
:10135000BDFD064605E082E0FFF7B8FD801B0228D0
:101360007DD838688007F7D42078400768D5DFF843
:10137000CCB100270BF13C0BDBF80000C0000BD414
:10138000DBF8001041F08051CBF80010DBF80000D2
:10139000012700F0805000906B4E3068C00510D4DB
:1013A000306840F480703060FFF790FD009005E0F9
:1013B000FFF78CFD0099401A022850D83068C0050C
:1013C000F6D55E4EA0686C3601280FD0052830682F
:1013D00010D020F001003060306820F00400306050
:1013E000A068B8B1FFF772FD00900FE0306840F0E0
:1013F0000100F4E740F004003060F7E7FFF766FD16
:101400000099411A41F28830814266D830688007DD
:10141000F4D50EE0FFF75AFD009007E0FFF756FD08
:101420000099411A41F28830814256D830688007CD
:10143000F4D42FB1DBF8001021F08051CBF800106C
:10144000A069C8B33D49091D0968C1F3810102299A
:101450004AD00228504607D0C8F8600000E03CE0BF
:10146000FFF734FD04463BE04746C8F86000FFF74D
:101470002DFD064605E000BFFFF728FD801B022872
:101480002BD828688001F7D4D4E907010843A16A62
:101490002E4A490802EB0141626A41EA821108437F
:1014A00094F82C1040EA0161C9F800100120386658
:1014B000FFF70CFD044606E03EE000BFFFF706FD27
:1014C000001B022809D828688001F7D534E000BF46
:1014D000FFF7FCFC001B022802D90320BDE8F88FAF
:1014E00028688001F4D427E00128F7D0D9F800005B
:1014F000E26900F4800191421CD1226A00F03F01B0
:10150000914217D147F6C071626A0140B1EB821F68
:1015100010D1A26A4FF0FF3300F4403103EB5202C6
:10152000B1EB024F06D194F82C1000F07060B0EBD4
:10153000016F01D00120D1E70020CFE7043802403D
:1015400000004742800E4742007000400000FFFF4D
:1015500070B5040009D0606A002540B1256165615D
:10156000A56294F8510040B10CE0012070BD6068A4
:10157000B0F5827FF4D0E561F2E784F85050204660
:1015800000F044F8022084F851002068016821F03E
:1015900040010160A088218900F4827001F40441B7
:1015A0000843A18901F400610843217C01F0020194
:1015B0000843217D01F001010843218B01F40071F2
:1015C0000843217F01F03801084394F8201001F00E
:1015D00080010843218D01F400510843216808600F
:1015E000A069042101EA104094F8241001F01001D0
:1015F0000843216848602068C16921F40061C16125
:101600006565012084F85100002070BD10B586B0DA
:10161000044614216846FEF79EFE1349206888425E
:1016200020D112480021026842F480520260006812
:1016300000F4805005900D481438026842F0010211
:101640000260006800F001000590E0200090022098
:10165000CDE9010103200390052004906946044868
:10166000FFF736FB06B010BD0030014044380240A1
:101670000000024010B5401EB0F1807F01D3012070
:1016800010BD4FF0E02460610F21601700F003FCF3
:101690000020A06107202061002010BD7047704726
:1016A000F8B5016804460868CA684B6910F00F0F66
:1016B0004FF0000559D003F0010602F4907737434C
:1016C00065D0C10705D0D10503D5216C41F00101DA
:1016D0002164410705D5D90703D0216C41F00201EF
:1016E0002164810705D5D90703D0216C41F004019D
:1016F0002164010707D502F02001314303D0216C9A
:1017000041F008012164216C00293AD0800604D5FB
:10171000900602D5204600F0D0FA20684069216C7E
:10172000C0F38010090700D460B3204600F09EFA91
:1017300020684069400621D52068143050E8001F19
:1017400021F0400140E80012002AF5D1A06BA8B1B9
:101750006C490165A06BFFF797FA002811D0A06BC8
:10176000016D01B0BDE8F040084783060FD5930630
:101770000DD52046BDE8F84000F09FBA2046FFF79F
:101780008EFFF8BD2046FFF78AFF2564F8BD266B63
:101790002023012E79D1C60677D5D60675D50868DF
:1017A000486800904869400640D5A16B08684068C9
:1017B0000004000CEAD0A28D8242E7D9E085C86916
:1017C000B0F5807F2DD020680C3050E8001F21F448
:1017D000807140E80012002AF5D12068143050E8EA
:1017E000001F21F0010140E80012002AF5D1206815
:1017F000143050E8001F21F0400140E80012002A98
:10180000F5D184F83E30256320680C3050E8001F85
:1018100021F0100140E80012002AF5D1A06BFFF77B
:10182000EAF9A08DE18D401A81B229E0A08DE18D09
:10183000401A81B2E08D0028A8D00029A6D02068E7
:101840000C3050E8002F22F4907240E80026002E61
:10185000F5D12068143050E8002F22F0010240E852
:101860000026002EF5D184F83E30256320680C3028
:1018700050E8002F22F0100240E80023002BF5D1A1
:101880002046FFF70BFFF8BDFFE705062BD5150631
:1018900029D594F83D002128F5D1A068B0F5805FE6
:1018A00001D12069B0B1206A411C21622168007811
:1018B0004860E08C401E0004000CE084E3D1206806
:1018C000C16821F08001C1602068C16841F0400119
:1018D000C160D8E7206A0088C0F308004860206A29
:1018E000801C2062E5E74006CDD55006CBD5CA68FE
:1018F000204622F04002CA6084F83D3000F075F8BE
:10190000C1E700005D1C000870B5040004D094F825
:101910003D00002510B106E0012070BD84F83C5068
:10192000204600F023F8242084F83D002068C16898
:1019300021F40051C160204600F020FA20680169BE
:1019400021F4904101612068416921F02A0141613F
:101950002068C16841F40051C1602564202084F8EA
:101960003D0084F83E00002070BD000010B586B038
:10197000044614216846FEF7EEFC184920688842A8
:1019800029D117480021026842F010020260006865
:1019900000F01000059012481438026842F001026D
:1019A0000260006800F0010005904FF4C0600090F4
:1019B0000220CDE90101032003900720049069462D
:1019C0000848FFF785F9002211462520FFF7ECFAB9
:1019D0002520FFF7DBFA06B010BD00000010014023
:1019E000443802400000024070477047FEE70000A4
:1019F0000F4810B50D4901600321416000214FF4EB
:101A0000E0228160C0E903124FF480024261017656
:101A100041768176C17601774177FEF7CAFF0028CB
:101A200003D0BDE81040FEF748BD10BD0064004083
:101A3000280000202DE9F04186B014216846FEF709
:101A40008AFC34480024016841F08001016001688B
:101A500001F080010591016841F001010160016818
:101A600001F001010591016841F004010160016884
:101A700001F004010591016841F00801016001686D
:101A800001F008010591016841F010010160006852
:101A9000214E00F010000590002204213046FFF78F
:101AA0000FFA1E4F002240213846FFF709FADFF8EF
:101AB0007080002201214046FFF702FA04200090C6
:101AC0000125CDE90154694630460394FFF700F93A
:101AD00040200090CDE90154694638460394FFF751
:101AE000F7F8602000900220CDE901040320039064
:101AF0000720049069460B48FFF7EAF80095CDE906
:101B00000154694640460394FFF7E2F806B0BDE889
:101B1000F08100003038024000000240000802401E
:101B200000100240000C02400F4810B50D49016042
:101B30004FF48271416000218160C1604FF40072F6
:101B40000161C0E90512C1610162416281620A213D
:101B5000C162FFF7FDFC002803D0BDE81040FEF78E
:101B6000ACBC10BD00300140500000200C4810B546
:101B70000A4901600B494160002181600C22C1606B
:101B8000C0E904128161C161FFF7BEFE002803D0E5
:101B9000BDE81040FEF791BC10BD000000100140F0
:101BA000A8000020A0860100FEE7FEE7704770470E
:101BB000FFF792B930B593B030216846FEF7CBFB02
:101BC00014210CA8FEF7C7FB1E480025016841F050
:101BD00080510160006800F0805011901A4801683F
:101BE00041F4804101600068022400F480401190BB
:101BF00001200090000401908001CDE906401920E9
:101C000008904FF4A870CDE9090404200B906846B1
:101C1000FFF7E8FA08B172B6FEE70CA90F2081E8D9
:101C200031004FF4A0500F904FF4805010900521D8
:101C30000CA8FFF7EBF9002801D072B6FEE713B04D
:101C400030BD00004038024000700040024801688A
:101C500041F470010160704788ED00E010B5806BC1
:101C60000021C185C184FFF71AFD10BD01680C3148
:101C700051E8002F22F4907241E80023002BF5D1A7
:101C80000168143151E8002F22F0010241E80023DD
:101C9000002BF5D1016B012909D101680C3151E804
:101CA000002F22F0100241E80023002BF5D1202163
:101CB00080F83E1000210163704708B590F83E108F
:101CC000222901D0022008BD82684FF480539A4235
:101CD00001D1016921B1816A9A421BD04AB10AE05F
:101CE0000268816A5268C2F308020A80816A891C0C
:101CF00008E0026972B10268526802F07F020A705D
:101D0000816A491C8162C18D491E0904090CC18583
:101D100003D019E002685268F1E70168CA6822F04E
:101D20002002CA600168CA6822F48072CA60016831
:101D30004A6922F001024A61202180F83E10016BBD
:101D4000012903D0FFF750FE002008BD00210163E8
:101D500001680C3151E8002F22F0100241E8002305
:101D6000002BF5D101680A68D20602D50A684968D5
:101D70000091818DFFF792FCE6E7000070B5044604
:101D800000680169E26821F4405111430161216951
:101D9000A068E26908436169114308432168CA6881
:101DA00049F20C639A430243CA6020684169A26900
:101DB00021F440711143416131492068884202D0C9
:101DC0003049884202D1FFF7CBF901E0FFF7B8F9BB
:101DD000E2690023192164253226B2F5004F6268BA
:101DE00028D0A0FB0101930F9200FEF73DFA0146B7
:101DF000B0FBF5F06FF01802504301EB800006EBEA
:101E00000010B0FBF5F000F0F002B1FBF5F002EBD2
:101E10000012B1FBF5F06FF01803584301EB80009E
:101E200006EB0010B0FBF5F000F00F002168104445
:101E3000886070BDA0FB010192185B41FEF714FAA7
:101E40000146B0FBF5F00201B1FBF5F06FF01803AD
:101E5000584301EB800006EBC000B0FBF5F000F04A
:101E6000F80002EB4002B1FBF5F0584301EB8000B3
:101E700006EBC000B0FBF5F000F00700D6E700006D
:101E800000100140001401400148FFF709BC0000A8
:101E9000A8000020FEE70907090E002804DB00F176
:101EA000E02080F80014704700F00F0000F1E020FF
:101EB00080F8141D70470000FFF716F8FFF77AFE50
:101EC000FFF7B8FDFFF794FDFFF72EFEFFF74EFE7C
:101ED000002211461420FFF767F81420FFF756F888
:101EE000FEF7CAFA094D4FF4FA7400220121284680
:101EF000FEF7E6FF2046FEF7D9FE012211462846EE
:101F0000FEF7DEFF2046FEF7D1FEEEE700100240AE
:101F10004FF04070E1EE100A704700000000000032
:101F20000000010203040607080900000000010286
:101F300003040000541F00080000002028000000D7
:101F4000C40100087C1F000828000020680700006A
:101F5000E001000801000000100000000000000087
:101F60000024F40000CC000000000000000000008D
:0C1F700000000000000000000000000065
:040000050800018965
:00000001FF
