:020000040800F2
:10000000004A0020F9020008CF2F0008592C0008F0
:10001000CD2F0008C90F0008E935000800000000D6
:10002000000000000000000000000000390200088D
:10003000611000080000000095020008153000085B
:100040001303000813030008130300081303000838
:100050001303000813030008130300081303000828
:100060001303000813030008130300081303000818
:100070001303000813030008130300081303000808
:1000800013030008130300081303000813030008F8
:10009000CD0F000813030008130300081303000822
:1000A00013030008130300081303000813030008D8
:1000B00013030008130300081303000813030008C8
:1000C00013030008130300081303000813030008B8
:1000D00013030008DD3500081303000813030008AC
:1000E0001303000813030008130300081303000898
:1000F0001303000813030008130300081303000888
:100100001303000813030008130300081303000877
:10011000130300081303000813030008D530000878
:100120001303000813030008D90F00081303000885
:100130001303000813030008130300081303000847
:100140001303000813030008130300081303000837
:100150001303000813030008130300081303000827
:100160001303000813030008130300081303000817
:100170001303000813030008130300080000000025
:10018000130300081303000800F002F800F044F81D
:100190000AA090E8000C82448344AAF10107DA45E2
:1001A00001D100F039F8AFF2090EBAE80F0013F0F0
:1001B000010F18BFFB1A43F0010318474441000028
:1001C00064410000103A24BF78C878C1FAD85207B9
:1001D00024BF30C830C144BF04680C6070470000C1
:1001E0000023002400250026103A28BF78C1FBD840
:1001F000520728BF30C148BF0B6070471FB504F0DD
:100200001FF89DE8030000F0B1FC00F0A3F91FBD4A
:1002100010B500F008FA10BD00F06BFA1146FFF7B8
:10022000EDFF03F0FFF900F06FFC03B4FFF7F0FF00
:1002300003BC00F02DFE00002C4B19680868B0E8E4
:10024000F04F80F30988BFF36F8F4FF0000080F309
:10025000118870470000000008480068006880F3BB
:1002600008884FF0000080F3148862B661B6BFF3CF
:100270004F8FBFF36F8F00DF00BF00BF08ED00E0BE
:10028000DFF80C00016841F470010160704700BFA5
:1002900088ED00E0EFF30980BFF36F8F134B1A680E
:1002A0001EF0100F08BF20ED108A20E9F04F1060FB
:1002B00009B44FF0500080F31188BFF34F8FBFF3A4
:1002C0006F8F03F0B1FD4FF0000080F3118809BC7F
:1002D00019680868B0E8F04F1EF0100F08BFB0ECC6
:1002E000108A80F30988BFF36F8F704730000020B9
:1002F000EFF3058070470000094880470948004730
:10030000FEE7FEE7FEE7FEE7FEE7FEE7FEE7FEE7C5
:10031000FEE7FEE704480549054A064B7047000022
:10032000C53000088901000800440020004A002070
:10033000004600200046002053EA020C00F06980CD
:100340002DE9F04B4FF00006002B1FBFB3FA83F5E9
:1003500003FA05F424FA05F65E4012BF1643B2FA1A
:1003600082F502FA05F4C5F120051EBF22FA05FC4C
:1003700044EA0C04203556EA044C4FEA144418BFF2
:10038000641C4FF000084FF00009904271EB030C21
:1003900039D3002919BFB1FA81F701FA07F6B0FA8B
:1003A00080F700FA07F6C7F120071EBF20FA07FC06
:1003B00046EA0C062037B6FBF4FCA7EB0507103F16
:1003C00007F01F0BCBF120060CFA0BFB2CFA06F6FC
:1003D00044BFB3460026202FA4BF5E464FF0000B5B
:1003E0005BEA060C08BF4FF0010B19EB0B09ABFBE6
:1003F000027C48EB0608C01B06FB02CC0BFB03CCBF
:1004000071EB0C01C1E70B46024641464846BDE888
:10041000F08B13B54FF000004FF00001AFF30080F8
:10042000BDE81C40704700000FB4044910B503AA92
:10043000029800F061F810BC5DF814FBF442002053
:1004400010B5203AC0F00B80B1E81850203AA0E86F
:100450001850B1E81850A0E81850BFF4F5AF5FEAA3
:10046000027C24BFB1E81850A0E8185044BF18C956
:1004700018C0BDE810405FEA827C24BF51F8043BFD
:1004800040F8043B08BF7047D20728BF31F8023B51
:1004900048BF11F8012B28BF20F8023B48BF00F8E5
:1004A000012B70474FF0000200B513469446964664
:1004B000203922BFA0E80C50A0E80C50B1F1200177
:1004C000BFF4F7AF090728BFA0E80C5048BF0CC025
:1004D0005DF804EB890028BF40F8042B08BF704783
:1004E00048BF20F8022B11F0804F18BF00F8012BF5
:1004F0007047704770477047074B70B50D467B4497
:1005000000F011F80446284600F020F810B14FF032
:10051000FF3070BD204670BD0931000001694A1CE2
:1005200002610878704700B58FB0CDE90131002134
:10053000059105497944CDE903101146684600F05C
:1005400024F90FB000BD0000E5FFFFFF007B00F0C5
:100550008000704710B542485421FFF7A3FF41487F
:100560005421FFF79FFF40485421FFF79BFF3F496D
:100570003B483C4A3F4B08603D490A603A49196094
:10058000531C0365481C1065012008653B48344A2C
:1005900039A1784400F01CFA20B9384878440A3868
:1005A00000F0BBFA37482F4A35A1784400F010FA22
:1005B00020B9344878440A3800F0AFFA32482A4A61
:1005C0002FA1784400F004FA20B92F4878440A3863
:1005D00000F0A3FA40232248DC000021224600F06C
:1005E000D3F920B125487844543800F096FA1D48D4
:1005F00022464023002100F0C7F920B12148784469
:10060000543800F08AFA184822461023002100F0DE
:10061000BBF9002806D01C487844BDE81040563885
:1006200000F07BBA10BD104870B5006D20F00104D9
:100630000B4800F043FA0B4800F040FA0A4800F07B
:100640003DFA09E0206D20F00105204600F036FA61
:10065000204600F073F82C46002CF3D170BD00004A
:10066000A0420020F44200204843002098000020CF
:100670009C000020A000002072000000F23C00005E
:1006800077000000DE3C0000CA3C00000EB5CDE95A
:10069000000100F0DDFB029069460120ABBE0EBDFB
:1006A00008B5694600900220ABBE08BD1FB58DE8B5
:1006B000070069460520ABBE04B010BD1FB58DE82C
:1006C0000F0069460620ABBEF6E708B56946009004
:1006D0000920ABBE08BD1CB5CDE9000169460A2062
:1006E000ABBE1CBD704708B5694600900C20ABBE80
:1006F00008BD754600F018FAAE4605006946534637
:1007000020F00700854618B020B5FFF703FEBDE8CE
:1007100020404FF000064FF000074FF000084FF068
:10072000000B21F00701AC46ACE8C009ACE8C009F9
:10073000ACE8C009ACE8C0098D46704770B5044606
:10074000051F00F0F7F90068002C14BF446870BD65
:10075000002C18BFAC423CBF20466468F8D3016847
:100760000A18AA4218BF456003D12A6805461144F9
:10077000016028684119A1421CBF6C6070BD6168AE
:10078000696021680844286070BD2DE9F041064683
:100790000024D6E90170F5688046304603E0414602
:1007A000B847641C3046A8470028F8D12046BDE869
:1007B000F0812DE9F04705460C46C86820F420106A
:1007C00040F48000C860800602D5084600F0FFFAB9
:1007D000E06841F282014FF0FF390140022903D065
:1007E000204600F09DFAB5E000F42041B1F5004F3D
:1007F0000FD1C00306D56168E06A884200D8084678
:10080000606006E02069E06260606069FFF76BFF8E
:10081000A061A0680022EEB200280DDAE1688B0525
:100820000AD4C043A06041F490302260E060606868
:10083000411C61600670A5E0E0689046226040F4CB
:100840000050E060206968BB6069FFF73EFF012748
:1008500004F12405A0B1A08910F4407F08D0E0691C
:1008600000F0B3F9206118B1E06840F4006016E0D0
:10087000E7612561E06820F4407040F480600EE09C
:10088000E06900F0A2F900282061F1D0E06840F4AE
:10089000006010F4407FE06002D140F48070E060BE
:1008A00020696060E06825696FF0010AC1051FD505
:1008B0006168E06A884200D80846411B04D022469D
:1008C000284600F037FAF0BBE068010203D5E56284
:1008D000C4E9015854E0691CE1626160E16940F4D7
:1008E0008030491EC4E9021030462E70BDE8F08702
:1008F000010202D500F480320AE06068411C6160A8
:100900000670E0680A2E40F48030E06006D00022D5
:10091000E16A6068814203D90B4602E00122F7E7F1
:100920000346A7895B1B7F0503D4E7699F4200DD6F
:10093000E2B1814200D80146E5620F1AC4E90158CC
:10094000002B09DD00E005E022461946284600F0AC
:10095000F1F908B14846C9E747B1A069E5626560A9
:10096000C01BA061E06840F01000E060E068000299
:1009700008D56168A069E562491B08446560A0610B
:100980005046B3E73046B1E770B5C468A50713D049
:10099000650211D4B2F5807F09D0B2F5007F06D090
:1009A000B2F5806F08D1012300F1240106E05D1E3D
:1009B0006FF07F46B54201D3012070BD0161C36174
:1009C000416024F470611143C160002070BD0000DB
:1009D0002DE9F0410C4607461646104600F06EF829
:1009E0002078611C61280AD0722802D077283CD177
:1009F00002E00125002405E00225042402E0082489
:100A000048F2020511F8010B2B2806D0622809D004
:100A100011F8010C74280AD00BE045F0030544F0EE
:100A20000204EFE745F0040544F00104EAE744F06E
:100A3000100438462146FFF729FE411C15D000213D
:100A4000316171604FF40071F560F16170612007F0
:100A500004D530460222002100F0E6F8306D40F067
:100A6000010030653046BDE8F0810020FBE72DE94C
:100A7000F0410D460646104C206DC10704D04108D8
:100A800004D020F00104F7E722460EE0542000F0E5
:100A90009CF807000ED0206D47F001010843542157
:100AA00020653846FFF7FEFC3A4629463046BDE849
:100AB000F0418DE70020D6E7A04200202DE9F04765
:100AC00004464FF000094FF0FF37C568D4E90486AB
:100AD000A80707D0204600F057F93046FFF7E0FDA1
:100AE000002802DA3846BDE8F087280502D54046DE
:100AF000FFF724FE4C212046FFF7D4FC206D20F0A8
:100B0000010020654846EEE710B50446AFF30080CB
:100B10002046BDE81040FFF788BB10B500F07EF915
:100B2000BDE8104000F074B9004870479C430020B5
:100B30007047000000487047A4430020704770478A
:100B40007047704738B504460A4600206946AFF33F
:100B50000080002808BF38BD02460099204600F0FA
:100B6000A4F9012038BD012000F0F3B9F8B5AFF3C6
:100B70000080054600200C46102000BF0646A8193C
:100B8000A0420DD9324669460020AFF3008007002D
:100B900008BF00F0DEF90098A04218BF0546C4194E
:100BA000FFF7C8FF05600746F01D20F00700461953
:100BB000284600F073F9B44208BFF8BDA21B3146C5
:100BC0003868BDE8F84000F070B970B50646FFF728
:100BD000B1FF056806F10B0020F00704B4429CBF8A
:100BE000002070BD2B466A68BAB11068A04210D3CD
:100BF00004F1080188423CBF5068586007D351682F
:100C0000101941601168091B016058601460101DC3
:100C100070BD13465268002AE7D121462846FFF7E7
:100C200091FF0028DED170BD2DE9F0410446164643
:100C30000D464769007B80072ED03846FFF745FDFB
:100C400050BB3EB3012E02D0022E25D104E0204637
:100C500000F045F905441DE03846FFF744FDE16822
:100C6000002841F01001E16005DA204600F058F854
:100C70000120BDE8F081C9030BD56268E16A9142A9
:100C800000D81146A26911442269891A814200DD07
:100C900008460544002D01DA0220EAE7E16A6068AF
:100CA000E268814206D29103E06203D522F400316A
:100CB00041F01002A6690027AE4213DCE16A8142CE
:100CC00001D90B4600E0034603EB060C2369ACEBAD
:100CD000030CAC4506DD814201D98C4600E0844618
:100CE0009C4505D1A760276042F02000A5620DE079
:100CF000AD1BE669AE1B8142A66000D90846C01A4A
:100D0000281A20605819606022F02000034908402A
:100D1000E060002084F84870ABE70000BFCFD7FF49
:100D2000C16821F4001141F08001C160002181609F
:100D3000016070472DE9F047814614460E464FF09A
:100D4000FF383248D5685769054209D03846A1694D
:100D5000FFF7C1FC002811DB2C48C0430540E560CB
:100D60002B46324649463846FFF7A0FCA16920F0E1
:100D70000042B21A11440028A16103D02046FFF7B7
:100D8000CFFF4046BDE8F08770B504460569C06AEC
:100D90006168884200D80846E16821F42011E160CA
:100DA000C90312D5A84208D02246411B2846FFF7A6
:100DB000C1FF10B14FF0FF3070BD0020E562C4E903
:100DC0000150E06820F48030E060002070BD10B574
:100DD0000446C06820F02000E060A16AA069884253
:100DE0000DD02046FFF7D0FFE06820F4405040F0DF
:100DF0001000E060A06AA0612069E062606044F2D7
:100E00004001E0688843E06010BD0000100002006F
:100E1000002801D000F03CB87047000010B5014632
:100E200002A000F07DF8012010BD00005349475298
:100E3000545245443A2052656469726563743A209D
:100E400063616E2774206F70656E3A2000000000A9
:100E500010B5431C02E010F8011B71B18107FAD1F3
:100E60004FF0013202C88C1A8C4314EAC211F9D037
:100E7000C01A0A0603D0C01E10BDC01A10BD0A0455
:100E800001D0801E10BD0902FCD0401E10BD000024
:100E900001491820ABBEFEE72600020000210160D8
:100EA000C0E90110704710207047034640688C4627
:100EB000002818BF88423CBF03464068F8D3186832
:100EC0001844884207D00CF1030020F00700001DF1
:100ED000411A521A0146081D0A60FFF72FBC10B5CF
:100EE0000146C268900703D0900607D5886A0AE0D9
:100EF00000F03EF801210160881E10BD8B69486832
:100F000018440B69C01A91F848301BB191F8491088
:100F1000401A10BD1103FCD50028FADD401E10BD9B
:100F200070B505460C460A2000E06D1C00F018F86C
:100F300035B128780028F8D102E0641C00F010F8E0
:100F400014B120780028F8D1BDE870400A2000F0E4
:100F500007B810B500F010F8BDE81040FFF758BF13
:100F600008B569468DF800000320ABBE08BD00003F
:100F7000004870479C43002010B5012805D000218F
:100F800003A0FFF7CDFF012010BD09A1F8E7000085
:100F900053494752544D454D3A204F7574206F6662
:100FA0002068656170206D656D6F727900000000CA
:100FB0003A2048656170206D656D6F727920636FAE
:100FC0007272757074656400FEE70000014800F0FD
:100FD000BFB80000F8020020014800F001BB00008B
:100FE0009404002001681823CAB2103AB2FBF3F24D
:100FF000054B6FF30901032A9B5CC36500D9091DEA
:1010000081650846704700006842000810B5014637
:1010100000208B698A6A4FF0C07453B1B3F5005F4A
:1010200015D072B1012A0CD0022A0AD0032A09D1A4
:1010300004E01AB1012A06D0022A03D1C96AC90103
:1010400000D5012010BDC96AA142FAD010BD002A06
:10105000F7D0012AF2D0022AF3D0032AF3D010BD30
:10106000704772B6FEE7704730B590F82040012C0B
:1010700005D0022C03D0416A41F480215DE0046870
:10108000002955D02469A40754D04FF4D8740568BA
:1010900004EB01142D5915F00405956005682D59D0
:1010A0004ED0ED08556005682C5904F00204D46058
:1010B0004FF4DA74056804EB01142D5905F00F059F
:1010C000156105682D59C5F30725956105682C59EB
:1010D000240C54614FF4DC72046802EB0112A45832
:1010E0001C700468A458240A5C700468A458240C7A
:1010F0009C700468A258120EDA704FF4DE72046815
:1011000002EB0112A4581C710468A458240A5C71F3
:101110000468A458240C9C710468A258120EDA7159
:10112000006881B1016941F020010161002030BDFA
:10113000E468A8E7416A41F400114162012030BD32
:101140006D0D1560AFE7C16841F02001C160EDE7AA
:101150002DE9F05F0546006800244669D0F8049048
:101160008768D0F80CB0D0F810A0D0F81880F1073C
:1011700048D0F90714D001218160B80703D528466B
:1011800000F0CCF90CE0780702D54FF4006407E0DA
:10119000380702D54FF4805402E0284600F0BDF92C
:1011A000F80516D529684FF480708860B80503D516
:1011B000284600F0B5F90CE0780502D544F4005457
:1011C00007E0380502D544F4804402E0284600F0E8
:1011D000A6F9F80316D529684FF480308860B80363
:1011E00003D5284600F09EF90CE0780302D544F4BC
:1011F000004407E0380302D544F4803402E0284676
:1012000000F08FF9300707D55FEACB6004D5296875
:10121000102044F40074C86070074FF0080707D529
:101220005FEA0B7004D52868C760284600F050F9C3
:10123000B00706D52868C068800702D0284600F0AD
:1012400049F9700607D55FEACA6004D529681020FD
:1012500044F480640861B00607D55FEA0A7004D5DB
:1012600028680761284600F055F9F00606D5286879
:101270000069800702D0284600F04DF9B00308D578
:101280005FEAC96005D5296810204860284600F04B
:1012900043F9F00307D55FEA097004D52868476071
:1012A000284600F040F9300446D55FEA497040D541
:1012B000F00504D55FEAC87001D044F00104B00520
:1012C00004D55FEA887001D544F00204700504D5A6
:1012D0005FEA487001D544F00404300529D518F0C0
:1012E000700F26D008F07000402815D006DC1028BA
:1012F00009D020280AD0302816D10AE050280ED074
:10130000602811D10EE044F008040DE044F0100410
:101310000AE044F0200407E044F0400404E044F014
:10132000800401E044F480742868816921F0700130
:101330008161296804204860002C05D0686A204338
:1013400068622846FFF78FFEBDE8F09F70B5040085
:1013500003D094F8200010B104E0012070BD2046B5
:1013600000F082F82068016841F00101016000F09E
:1013700089FB0546052604E000F084FB401B0A2893
:1013800011D820684068C007F6D02068016821F0B5
:101390000201016000F076FB05460BE000F072FBF5
:1013A000401B0A2806D9606A40F40030606284F865
:1013B0002060D2E7206840688007EFD4207E0128B3
:1013C000206801683DD021F080010160607E012825
:1013D0002068016838D021F040010160A07E01281A
:1013E0002068016833D021F020010160E07E0128EF
:1013F000206801682ED041F010010160207F012893
:101400002068016829D021F008010160607F01286F
:101410002068016824D021F004010160D4E90201B0
:101420000843D4E90412114308436168491E084384
:101430002168C86100206062012084F8200000203B
:1014400070BD41F08001C0E741F04001C5E741F0C7
:101450002001CAE721F01001CFE741F00801D4E7ED
:1014600041F00401D9E7000010B586B0044614210C
:101470006846FFF717F81349206888421FD11248C1
:101480000021026842F000720260006800F0007003
:1014900005900D481038026842F0080202600068AA
:1014A000022200F0080005900320CDE90210CDE9EA
:1014B0000002092004906946044800F0DDF906B0F6
:1014C00010BD00000064004040380240000C0240A3
:1014D0007047000010B50C4A0168914212D10B4BC5
:1014E0000B4A0021FFF7C0FD084801884ABA00F105
:1014F00008010A80428852BA4A80828852BA8A8099
:101500008079C88010BD0000006400401E000020EB
:101510001C05002070477047704770477047704740
:1015200070477047704770472DE9F0410446876D5A
:1015300000F0A8FA064694F835000025022806D0E7
:101540008020606584F834500120BDE8F081206877
:10155000016821F0160101602068416921F08001D5
:101560004161206C08B9A06C20B12068016821F0AD
:10157000080101602068016821F0010101600CE0B0
:1015800000F080FA801B052807D920206065032021
:1015900084F8350084F83450D7E720680068C00725
:1015A000EED194F85C103F208840B860012084F8A8
:1015B000350084F834500020C7E790F83510022930
:1015C00003D08021416501207047052180F8351046
:1015D0000068016821F001010160002070470000EF
:1015E0002DE9F84304464FF00009CDF80090634818
:1015F0004FF41651A56D0068B0FBF1F72E6894F812
:101600005C10082000FA01F131420FD021680A680D
:1016100052070BD50A6822F004020A6094F85C10A5
:101620008840A860606D40F00100606594F85C102F
:101630004FF0010808FA01F0304208D021684969EA
:10164000090604D5A860606D40F00200606594F85A
:101650005C1004208840304208D02168096889075E
:1016600004D5A860606D40F00400606594F85C10DB
:1016700010208840304218D021680968090714D525
:10168000A86020680168490304D50068000308D5F4
:10169000A16C07E00168C90503D4016821F00801C5
:1016A0000160216C09B12046884794F85C10202025
:1016B0008840304231D021680968C9062DD5A8601C
:1016C00094F8350005282068016806D0490347D5FD
:1016D000006800031DD4616C1CE021F0160101605C
:1016E0002068416921F080014161206C08B9A06C3B
:1016F00020B12068016821F00801016094F85C10B5
:101700003F208840A86084F8358084F83490216DAB
:101710001FE0E16B09B120468847606D00282BD09F
:10172000606DC00714D0052084F83500206801687A
:1017300021F0010101600098401C0090B84203D8DC
:1017400020680068C007F6D184F8358084F83490AA
:10175000E16C002910D001B02046BDE8F0430847F5
:101760000168C905D5D4016821F01001016084F831
:10177000358084F83490CCE7BDE8F8831000002071
:101780002DE9F041044600F07DF906465CB10220E7
:1017900084F83500002584F834502068016821F071
:1017A000010101600DE00120BDE8F08100F06AF95F
:1017B000801B052805D920206065032084F83500AA
:1017C000F2E720680068C007F0D12268116820485D
:1017D0000140D4E901031843D4E9033633431843E5
:1017E00063691843A3691843E3691843236A1843DC
:1017F0000843616A042903D1D4E90B131943084350
:10180000106020684069666A20F0070130460E4388
:10181000012704280CD1A06A0643E06A40B12046A3
:10182000FFF7F4FB20B14020606584F83570BAE71B
:10183000206846612046FFF7D5FB94F85C203F21E5
:1018400091408160656584F835700020ACE7000048
:101850003F8010F070B5044600F014F90546601C96
:1018600002D004480078044400F00CF9401BA04268
:10187000FAD370BD040000202DE9F84FDFF8BCA1B9
:10188000002201250AF1040B03264FF00F090BF18A
:10189000040E00BF0B6805FA02F42340A34270D186
:1018A0000F7907F00307012F01D0022F16D18768A7
:1018B0004FEA420806FA08FC27EA0C07D1F80CC0E8
:1018C0000CFA08FC4CEA070CC0F808C04768A743AC
:1018D0000C79C4F3001494403C4344600C79E44315
:1018E000A4070AD0C4684FEA420C06FA0CF7BC43BE
:1018F0008F6807FA0CF72743C7600C7904F00304DC
:10190000022C12D1D40800EB840CDCF820405707DD
:10191000FF0E09FA07F824EA0804D1F8108008FA43
:1019200007F848EA0408CCF8208004684FEA420C23
:1019300006FA0CF7BC430F7907F0030707FA0CF718
:10194000274307604C6814F4403F70D03C4C276834
:1019500047F480472760246822F0030704F480449A
:101960000094384C07EB040CDCF8084897074FEA62
:10197000177809FA08F7BC43334FB84202D1002761
:1019800024E054E0314FB84201D101271EE0304F2E
:10199000B84201D1022719E02E4FB84201D10327E6
:1019A00014E02D4FB84201D104270FE02B4FB8426D
:1019B00001D105270AE02A4FB84201D1062705E0E8
:1019C000284FB84201D1072700E0082707FA08F797
:1019D0002743CCF80878DAF800405746D1F804C01D
:1019E0009C435FEACC3C00D51C433C60DBF80040E4
:1019F0005F46D1F804C09C435FEA8C3C00D51C4391
:101A00003C60DEF800407746D1F804C09C435FEAB2
:101A1000CC2C00D51C433C60084F0C373C68D1F8F7
:101A200004C09C435FEA8C2C00D51C433C60521CD4
:101A3000102AFFF42FAFBDE8F88F0000003C0140F2
:101A400044380240003001400000024000040240DF
:101A500000080240000C0240001002400014024046
:101A600000180240001C0240426921EA02030A40B9
:101A700043EA0241816170470AB1816170470904FC
:101A8000FBE7000001488068704700000400002068
:101A90000248816802781144816070470400002088
:101AA0000B4810B5016841F400710160016841F410
:101AB00080610160016841F480710160032000F0E1
:101AC00073F80F2000F006F800F024F8002010BD95
:101AD000003C024070B50D4D04464FF47A712878F1
:101AE000B1FBF0F00A490968B1FBF0F000F0A2FB8D
:101AF00048B9102C07D200222146501E00F034F8BD
:101B000000206C6070BD012070BD0000040000204A
:101B1000100000200C4882B0016841F4804101604F
:101B2000006800F4804000900748001F016841F001
:101B3000805101600068002200F0805000900F2169
:101B4000901E02B000F010B844380240002809DBB3
:101B500000F01F02012191404009800000F1E020C7
:101B6000C0F8001170470000F0B40E4B1B680C4623
:101B7000C3F30223C3F10705042D00D90425191D61
:101B8000072901D2002300E0DB1E012606FA05F139
:101B9000491E214099409E40761E16403143F0BCBC
:101BA00001F023BD0CED00E0064900F007020868D3
:101BB0004FF6FF03184040EA0220034A1043086032
:101BC000704700000CED00E00000FA052DE9F04739
:101BD0000E46050065D0DFF81481D8F80000F7B292
:101BE00000F00700B04207D288F80070D8F8000073
:101BF00000F00700B04254D128683D4C810712D54F
:101C0000400703D5206840F4E050206028780007A2
:101C100003D5206840F4604020602068A96820F067
:101C2000F000084320602878C0072DD0304968684C
:101C30000839012812D0022813D0032811D00968CE
:101C4000890700292DDA216821F003010143216071
:101C5000FFF718FF814641F2883A0EE009688903D0
:101C6000EFE709688901ECE7FFF70CFFA0EB09013A
:101C7000514502D90320BDE8F0872068696800F06B
:101C80000C00B0EB810FEFD1D8F80010404601F006
:101C90000701B14207D90770006800F00700B042A1
:101CA00001D00120E7E72878400705D52068E968DA
:101CB00020F4E050084320602878000706D520680B
:101CC000296920F4604040EAC100206000F038F843
:101CD0002168084AC1F30311515CC84006490860F5
:101CE00006480068FFF7F6FE0020C4E7003C02400B
:101CF0000838024070420008100000200800002050
:101D00000448054900680968044AC1F38221515C0E
:101D1000C840704710000020083802408042000888
:101D20000448054900680968044AC1F34231515C1E
:101D3000C840704710000020083802408042000868
:101D4000154810B5006810F00C02144813D014495F
:101D5000042A0FD0082A0ED10F4C241F22682368B2
:101D600002F03F025B0207D52068C0F38810A0FB99
:101D7000010106E0084610BD2168C1F38811A1FBEE
:101D800000010023FEF7D8FA2168C1F30141491C84
:101D90004900B0FBF1F010BD083802400024F40007
:101DA00040787D012DE9F84F04006ED02078DFF8EF
:101DB0004C93C007A9F104054AD009F10400016859
:101DC000C1F38101012908D00068C0F38100022815
:101DD0000AD1D9F80000400206D52868800337D51B
:101DE00060680028E1D033E06068B0F5803F10D033
:101DF000B0F5A02F286810D020F480302860286823
:101E000020F4802028606068A8B1FFF73BFE0646FA
:101E10000DE0286840F48030F4E740F4802028602A
:101E2000F7E700BFFFF72EFE801B642873D82868F1
:101E30008003F7D50CE0FFF725FE064605E000BF5E
:101E4000FFF720FE801B6428F0D828688003F7D4B1
:101E50002078DFF8AC8280074FF0000A3ED5A74813
:101E6000001D016811F00C0F08D00068C0F381005C
:101E700002280BD1D9F80000400207D42868800757
:101E800016D5E068012800D112E033E1E068B8B16E
:101E90000120C8F80000FFF7F5FD064605E000BF89
:101EA000FFF7F0FD801B0228C0D828688007F7D50F
:101EB0002868216920F0F80040EAC10028600DE0A0
:101EC000C8F800A0FFF7DEFD064604E0FFF7DAFDE4
:101ED000801B02281FD828688007F7D420780007C5
:101EE00022D5864F87486169703771B10121016041
:101EF000FFF7C8FD064604E0FFF7C4FD801B02287B
:101F000009D838688007F7D50EE0C0F800A0FFF7C1
:101F1000B9FD064605E082E0FFF7B4FD801B02280C
:101F20007DD838688007F7D42078400768D5DFF877
:101F3000CCB100270BF13C0BDBF80000C0000BD448
:101F4000DBF8001041F08051CBF80010DBF8000006
:101F5000012700F0805000906B4E3068C00510D40F
:101F6000306840F480703060FFF78CFD009005E031
:101F7000FFF788FD0099401A022850D83068C00544
:101F8000F6D55E4EA0686C3601280FD00528306863
:101F900010D020F001003060306820F00400306084
:101FA000A068B8B1FFF76EFD00900FE0306840F018
:101FB0000100F4E740F004003060F7E7FFF762FD4E
:101FC0000099411A41F28830814266D83068800712
:101FD000F4D50EE0FFF756FD009007E0FFF752FD45
:101FE0000099411A41F28830814256D83068800702
:101FF000F4D42FB1DBF8001021F08051CBF80010A1
:10200000A069C8B33D49091D0968C1F381010229CE
:102010004AD00228504607D0C8F8600000E03CE0F3
:10202000FFF730FD04463BE04746C8F86000FFF785
:1020300029FD064605E000BFFFF724FD801B0228AE
:102040002BD828688001F7D4D4E907010843A16A96
:102050002E4A490802EB0141626A41EA82110843B3
:1020600094F82C1040EA0161C9F80010012038668C
:10207000FFF708FD044606E03EE000BFFFF702FD63
:10208000001B022809D828688001F7D534E000BF7A
:10209000FFF7F8FC001B022802D90320BDE8F88FE7
:1020A00028688001F4D427E00128F7D0D9F800008F
:1020B000E26900F4800191421CD1226A00F03F01E4
:1020C000914217D147F6C071626A0140B1EB821F9D
:1020D00010D1A26A4FF0FF3300F4403103EB5202FB
:1020E000B1EB024F06D194F82C1000F07060B0EB09
:1020F000016F01D00120D1E70020CFE70438024072
:1021000000004742800E4742007000400000FFFF81
:1021100070B5040009D0606A002540B12561656191
:10212000A56294F8510040B10CE0012070BD6068D8
:10213000B0F5827FF4D0E561F2E784F85050204694
:1021400000F044F8022084F851002068016821F072
:1021500040010160A088218900F4827001F40441EB
:102160000843A18901F400610843217C01F00201C8
:102170000843217D01F001010843218B01F4007126
:102180000843217F01F03801084394F8201001F042
:1021900080010843218D01F4005108432168086043
:1021A000A069042101EA104094F8241001F0100104
:1021B0000843216848602068C16921F40061C16159
:1021C0006565012084F85100002070BD10B586B00F
:1021D000044614216846FEF765F9134920688842D1
:1021E00020D112480021026842F480520260006847
:1021F00000F4805005900D481438026842F0010246
:102200000260006800F001000590E02000900220CC
:10221000CDE901010320039005200490694604489C
:10222000FFF72AFB06B010BD0030014044380240E1
:102230000000024010B5401EB0F1807F01D30120A4
:1022400010BD4FF0E02460610F21601701F0CDF95F
:102250000020A06107202061002010BD704770475A
:1022600070B590F83C20012A32D0012480F83C401F
:10227000022280F83D2003685A689D6822F07006AB
:102280000A6832435A60134B02689A4214D0B2F182
:10229000804F11D0104B9A420ED0104B9A420BD067
:1022A0000F4B9A4208D00F4B9A4205D00E4B9A42E0
:1022B00002D00E4B9A4204D1496825F0800319439D
:1022C000916080F83D40002180F83C10084670BDC8
:1022D000022070BD000001400004004000080040E2
:1022E000000C004000040140004001400018004084
:1022F00010B5040003D094F83D0010B107E00120B0
:1023000010BD002084F83C00204600F01FF8022099
:1023100084F83D00211D206800F0E2FE012084F8D1
:10232000460084F83E0084F83F0084F8400084F8BA
:10233000410084F8420084F8430084F8440084F8A3
:10234000450084F83D00002010BD000008B5124A89
:1023500001681248914207D1016841F0040101600F
:10236000006800F0040009E00D4A914208D10168BC
:1023700041F010010160006800F01000009008BDFD
:10238000084A9142FBD1016841F0200101600068D8
:1023900000F02000F2E70000000800404038024052
:1023A000001000400014004090F83D10012901D0B9
:1023B00001207047022180F83D100168CA6842F090
:1023C0000102CA6000681149884214D0B0F1804F00
:1023D00011D00F4988420ED00E4988420BD00E49C9
:1023E000884208D00D49884205D00D49884202D064
:1023F0000C49884204D1816801F00701062903D005
:10240000016841F0010101600020704700000140B7
:102410000004004000080040000C0040000401409F
:10242000004001400018004070B5044690F83C00A0
:102430000025012817D0012684F83C60022084F88A
:102440003D002068826822F0770222F47F42826099
:102450000868502838D00DDC20284FD005DC90B318
:10246000102811D14AE0022070BD302846D0402803
:102470000AD13BE060282FD070280DD0B0F5805FE6
:1024800003D0B0F5005F12D0012584F83D60002034
:1024900084F83C00284670BDCB68D1E90121206852
:1024A00000F08FFE2068816841F0770109E0CB6879
:1024B000D1E90121206800F084FE2068816841F4A0
:1024C00080418160E1E719E0CA684968206800F04E
:1024D0004DFF5021206806E0CA684968206800F076
:1024E00056FF6021206800F076FECEE7CA68496892
:1024F000206800F03BFF40212068F4E72268014695
:102500001046F0E7704770B50446006801694FF067
:102510000005C943890715D4C168C943890711D487
:10252000E91E01610120207720688069800720462C
:1025300002D0FFF7E7FF04E000F0C0F8204600F00B
:1025400052F9257720680169C943490717D4C16842
:10255000C943490713D46FF00401016102202077B9
:102560002068806910F4407F204602D0FFF7CAFF40
:1025700004E000F0A3F8204600F035F92577206844
:102580000169C943090716D4C168C943090712D4B0
:102590006FF008010161042020772068C06980077E
:1025A000204602D0FFF7AEFF04E000F087F8204697
:1025B00000F019F9257720680169C943C90617D4C5
:1025C000C168C943C90613D46FF010010161082026
:1025D00020772068C06910F4407F204602D0FFF7C2
:1025E00091FF04E000F06AF8204600F0FCF825773F
:1025F00020680169C943C90708D1C168C943C9072F
:1026000004D1891E0161204600F052F92068016959
:10261000C943090609D4C168C943090605D46FF046
:10262000800101612046FFF719FE20680169C94356
:10263000490609D4C168C943490605D46FF0400171
:102640000161204600F042F920680169C94389060A
:102650000BD4C168C943890607D46FF0200101611A
:102660002046BDE87040FFF7FABD70BD10B586B0DA
:10267000044614216846FDF715FF0D49206888427D
:1026800014D10C480021026842F002020260006886
:1026900000F002000590802000900220CDE90101A9
:1026A000CDE9031069460448FFF7E6F806B010BD0F
:1026B000000800403038024000040240704770B506
:1026C000044690F83C0000260D4601280FD001205A
:1026D00084F83C006AB1042A1DD0082A2FD00C2AA5
:1026E0003FD00126002084F83C00304670BD022017
:1026F00070BD206800F078FD2068816941F0080114
:1027000081612068816921F004018161206881690B
:102710002A69114311E0206800F096FD2068816964
:1027200041F4006181612068816921F480618161E7
:10273000206881692A6941EA02218161D2E7206823
:1027400000F0B8FD2068C16941F00801C16120684E
:10275000C16921F00401C1612068C1692A6911437E
:1027600011E0206800F0DAFD2068C16941F40061E1
:10277000C1612068C16921F48061C1612068C169BB
:102780002A6941EA0221C161ACE710B5040003D017
:1027900094F83D0010B107E0012010BD002084F83E
:1027A0003C00204600F01EF8022084F83D00211D68
:1027B000206800F095FC012084F8460084F83E0073
:1027C00084F83F0084F8400084F8410084F8420017
:1027D00084F8430084F8440084F8450084F83D0000
:1027E000002010BD7047704710B50446022249B161
:1027F00004290ED0082913D094F84100012816D0DE
:10280000012010BD94F83E000128F9D184F83E2043
:102810000FE094F83F000128F2D184F83F2008E04F
:1028200094F840000128EBD184F8402001E084F8BE
:1028300041200122206800F0B7FC16492068164AA2
:10284000884201D0904203D1436C43F40043436477
:102850002068884213D0B0F1804F10D00F498842D1
:102860000DD00F4988420AD00E49884207D09042C5
:1028700005D00D49884202D00C49884204D18168B4
:1028800001F00701062903D0016841F00101016050
:10289000002010BD00000140000401400004004081
:1028A00000080040000C00400040014000180040BB
:1028B00000680449884203D101210348FFF7D4B8D6
:1028C0007047000000100040001002407047704741
:1028D00070470000F8B5016804460868CA684B698B
:1028E00010F00F0F4FF0000559D003F0010602F46D
:1028F0009077374365D0C10705D0D10503D5216C4A
:1029000041F001012164410705D5D90703D0216CAD
:1029100041F002012164810705D5D90703D0216C5C
:1029200041F004012164010707D502F02001314381
:1029300003D0216C41F008012164216C00293AD0B8
:10294000800604D5900602D5204600F061FD20687F
:102950004069216CC0F38010090700D460B32046A1
:1029600000F02FFD20684069400621D52068143012
:1029700050E8001F21F0400140E80012002AF5D184
:10298000A06BA8B16C490165A06BFEF716FE00288C
:1029900011D0A06B016D01B0BDE8F040084783067F
:1029A0000FD593060DD52046BDE8F84000F030BDA8
:1029B0002046FFF78DFFF8BD2046FFF789FF25640D
:1029C000F8BD266B2023012E79D1C60677D5D60611
:1029D00075D50868486800904869400640D5A16BE5
:1029E000086840680004000CEAD0A28D8242E7D952
:1029F000E085C869B0F5807F2DD020680C3050E8A4
:102A0000001F21F4807140E80012002AF5D12068EF
:102A1000143050E8001F21F0010140E80012002AA4
:102A2000F5D12068143050E8001F21F0400140E843
:102A30000012002AF5D184F83E30256320680C305E
:102A400050E8001F21F0100140E80012002AF5D1E3
:102A5000A06BFEF769FDA08DE18D401A81B229E0DF
:102A6000A08DE18D401A81B2E08D0028A8D0002908
:102A7000A6D020680C3050E8002F22F4907240E875
:102A80000026002EF5D12068143050E8002F22F0E7
:102A9000010240E80026002EF5D184F83E3025637F
:102AA00020680C3050E8002F22F0100240E800238C
:102AB000002BF5D12046FFF70AFFF8BDFFE705061A
:102AC0002BD5150629D594F83D002128F5D1A0680D
:102AD000B0F5805F01D12069B0B1206A411C21624C
:102AE000216800784860E08C401E0004000CE084FF
:102AF000E3D12068C16821F08001C1602068C1680D
:102B000041F04001C160D8E7206A0088C0F30800A6
:102B10004860206A801C2062E5E74006CDD550065B
:102B2000CBD5CA68204622F04002CA6084F83D3006
:102B300000F091F8C1E70000B333000870B504005D
:102B400004D094F83D00002510B106E0012070BDCE
:102B500084F83C50204600F023F8242084F83D00FF
:102B60002068C16821F40051C160204600F0B0FC2B
:102B70002068016921F4904101612068416921F0D8
:102B80002A0141612068C16841F40051C160256497
:102B9000202084F83D0084F83E00002070BD000035
:102BA00070B586B0064614216846FDF77BFC2449C3
:102BB0003068884242D123480025016841F0100165
:102BC0000160006800F0100005901E48143801688C
:102BD00041F0010101600068694600F001000590C4
:102BE0004FF4C06000900220CDE90105032003905E
:102BF000072004901448FEF73FFE154C1348206050
:102C00004FF00060C4E901054014C4E90350656158
:102C10004FF44030A561C4E9075020466562FEF7D5
:102C2000AFFD08B1FEF71DFAB4630022052125208F
:102C3000A663FEF799FF2520FEF788FF06B070BD5A
:102C4000001001404438024000000240406402404D
:102C50009404002070477047FEE700000F4810B54D
:102C60000D4901600321416000214FF4E0228160A1
:102C7000C0E903124FF48002426101764176817609
:102C8000C17601774177FEF761FB002803D0BDE8EC
:102C90001040FEF7E6B910BD00640040F8020020C5
:102CA000094808B5016841F480010160006800220C
:102CB00000F48000009005213A20FEF755FFBDE8A2
:102CC00008403A20FEF742BF3038024000B587B0D6
:102CD0001C2206496846FDF7B3FB0021684600F058
:102CE000E4FC0349086007B000BD00004C42000846
:102CF000000000202DE9F04F87B014216846FDF751
:102D0000D1FB3F480024016841F080010160016867
:102D100001F080010591016841F001010160016845
:102D200001F001010591016841F0080101600168AD
:102D300001F008010591016841F00401016001689A
:102D400001F004010591016841F002010160016890
:102D500001F002010591016841F010010160006875
:102D6000284E00F010000590002204213046FEF7A6
:102D700083FEDFF894A0002240215046FEF77CFE3F
:102D8000DFF888B0002201215846FEF775FE0420C6
:102D900000900125CDE90154694630460394FEF7C1
:102DA0006BFD4FF440700226CDE9000602AA03270E
:102DB0004FF00708DFF8589082E8900169464846CE
:102DC000FEF75AFD40200090CDE901546946504677
:102DD0000394FEF751FD6020CDE9000602AA694682
:102DE00082E890014846FEF747FD0095CDE9015481
:102DF000694658460394FEF73FFD07B0BDE8F08FE3
:102E0000303802400000024000080240001002403A
:102E1000000C02400F4810B50D4901604FF482715B
:102E2000416000218160C1604FF400720161C0E91E
:102E30000512C1610162416281620A21C162FFF72C
:102E400067F9002803D0BDE81040FEF70AB910BDAD
:102E5000003001402003002010B58EB000240794FC
:102E6000089409940A940B941C2168460C94FDF76D
:102E700019FB21481F4901605321C0E9011440F2A8
:102E8000F311C0E9031480218161FFF731FA08B121
:102E9000FEF7E7F84FF48050079007A91648FFF7B0
:102EA000C3FA08B1FEF7DDF81348FFF76EFC08B16E
:102EB000FEF7D7F80B940BA90F480C94FFF7D0F945
:102EC00008B1FEF7CEF86020CDE9000402200290A0
:102ED0000422694604940848FFF7F1FB08B1FEF7A5
:102EE000C0F80548FFF732FA0348FFF7BFFB0EB002
:102EF00010BD000000080040780300201CB500242D
:102F00000E4800940C490194C0E900144FF6FF717B
:102F1000C0E902418461FFF7EBF908B1FEF7A1F8BF
:102F20000094694605480194FFF79AF9002801D0FA
:102F3000FEF797F81CBD000000100040C003002001
:102F40001CB500241248009410490194016042F21B
:102F5000CF01C0E9011442F20F71C160802181618B
:102F6000FFF7C6F908B1FEF77CF81020CDE90004A0
:102F700069460748FFF774F908B1FEF772F804488C
:102F8000FFF7E4F90248FFF70FFA1CBD00140040F8
:102F9000080400200C4810B50A4901604FF4E131E3
:102FA0004160002181600C22C160C0E9041281618E
:102FB000C161FFF7C3FD002803D0BDE81040FEF754
:102FC00050B810BD0010014050040020FEE7FEE79D
:102FD0000024254604210C48FFF706FC4FF4FA773D
:102FE000094E01E0641E00E0641CA4B2BC4200D3A0
:102FF000012504B90025306884630520FEF72AFC0A
:10300000002DF1D0EEE7000078030020012000F051
:103010003FFBFBE710B5FEF73BFD01F033F801285D
:1030200003D0BDE8104000F0B1BF10BD30B593B083
:1030300030216846FDF736FA14210CA8FDF732FA64
:103040001E480025016841F080510160006800F0D1
:10305000805011901A48016841F480410160006875
:10306000022400F48040119001200090000401909F
:103070008001CDE90640192008904FF4A870CDE9F1
:10308000090404200B906846FEF78CFE08B172B666
:10309000FEE70CA90F2081E831004FF4A0500F90FB
:1030A0004FF48050109005210CA8FEF78FFD0028EA
:1030B00001D072B6FEE713B030BD000040380240C8
:1030C000007000400248016841F4700101607047DF
:1030D00088ED00E00148FFF716BA00000804002060
:1030E000F0B50268254C264D264E274F274B4FF052
:1030F000804CA04209D0604507D0A84205D0B0421C
:1031000003D0B84201D0984204D122F0700E4A6830
:1031100042EA0E02A0421BD0604519D0A84217D047
:10312000B04215D0B84213D0984211D0184DA842E1
:103130000ED0184DA8420BD0174DA84208D0174DFD
:10314000A84205D0164DA84202D0164DA84203D180
:1031500022F44075CA682A434D6922F080022A434E
:1031600002608A68C2620A688262A04201D0984204
:1031700001D10969016301214161F0BD00000140F5
:103180000004004000080040000C00400004014022
:103190000040014000440140004801400018004048
:1031A000001C00400020004010B501F01F03012169
:1031B000046A99408C430462016A9A401143016297
:1031C00010BD10B5846842EA032224F47F440A4308
:1031D0002243826010BD826822F070020A4342F0EE
:1031E0000701816070470000F0B5026A22F0010219
:1031F0000262036A42688469124E24F073050C6807
:103200002C4323F002058B682B430D4DA84201D0BF
:10321000B04205D123F00807CB683B4323F00403F9
:10322000A84201D0B04205D14D6922F44072154345
:103230008A692A4342608461496841630362F0BD40
:103240000000014000040140F0B5026A22F01002C3
:103250000262026A436884690D6824F4E64444EA21
:1032600005248D6822F0200242EA05120F4D104E0F
:10327000A84201D0B04206D1CF6822F0800242EAD3
:10328000071222F04002A84201D0B04207D14D6996
:1032900023F4406343EA85038D6943EA8503436071
:1032A0008461496881630262F0BD00000000014052
:1032B00000040140F0B5026A22F480720262026AE0
:1032C0004368C46922F4007224F073050C68124E3E
:1032D0002C438D6842EA05220E4DA84201D0B0422F
:1032E00006D1CF6822F4006242EA072222F480620B
:1032F000A84201D0B04207D14D6923F4405343EABC
:1033000005138D6943EA05134360C4614968C163CD
:103310000262F0BD000001400004014030B5026AC5
:1033200022F480520262046A4268C3690D6823F481
:10333000E64343EA05238D6824F4005444EA053447
:10334000084DA84202D0084DA84204D14D6922F48C
:10335000804242EA85124260C361496801640462A6
:1033600030BD0000000001400004014010B5036AB8
:10337000046A24F001040462846924F0F00444EA3D
:10338000021423F00A020A438461026210BD10B5E0
:10339000036A23F0100303628369046A23F4704311
:1033A00043EA023224F0A00343EA01118261016280
:1033B00010BD10B5806B0021C185C184FFF788FA6C
:1033C00010BD01680C3151E8002F22F4907241E8E1
:1033D0000023002BF5D10168143151E8002F22F0B1
:1033E000010241E80023002BF5D1016B012909D12D
:1033F00001680C3151E8002F22F0100241E800234F
:10340000002BF5D1202180F83E1000210163704788
:1034100008B590F83E10222901D0022008BD82682C
:103420004FF480539A4201D1016921B1816A9A42D5
:103430001BD04AB10AE00268816A5268C2F30802EE
:103440000A80816A891C08E0026972B102685268C8
:1034500002F07F020A70816A491C8162C18D491E97
:103460000904090CC18503D019E002685268F1E72C
:103470000168CA6822F02002CA600168CA6822F4A2
:103480008072CA6001684A6922F001024A61202103
:1034900080F83E10016B012903D0FFF7DBFB002011
:1034A00008BD0021016301680C3151E8002F22F0B2
:1034B000100241E80023002BF5D101680A68D2060A
:1034C00002D50A6849680091818DFFF700FAE6E7A6
:1034D00070B5044600680169E26821F44051114367
:1034E00001612169A068E2690843616911430843E9
:1034F0002168CA6849F20C639A430243CA60206893
:103500004169A26921F44071114341613149206848
:10351000884202D03049884202D1FEF701FC01E026
:10352000FEF7EEFBE2690023192164253226B2F58D
:10353000004F626828D0A0FB0101930F9200FCF7B6
:10354000FBFE0146B0FBF5F06FF01802504301EBB3
:10355000800006EB0010B0FBF5F000F0F002B1FBCC
:10356000F5F002EB0012B1FBF5F06FF018035843D1
:1035700001EB800006EB0010B0FBF5F000F00F004F
:1035800021681044886070BDA0FB010192185B4166
:10359000FCF7D2FE0146B0FBF5F00201B1FBF5F0FD
:1035A0006FF01803584301EB800006EBC000B0FB3E
:1035B000F5F000F0F80002EB4002B1FBF5F05843E3
:1035C00001EB800006EBC000B0FBF5F000F0070057
:1035D000D6E7000000100140001401400148FFF749
:1035E00079B9000050040020FEE70907090E002801
:1035F00004DB00F1E02080F80014704700F00F00B9
:1036000000F1E02080F8141D70478A68002A01DC70
:10361000FDF7CFB8521E8A604A68C0B2531C4B6097
:1036200010707047FEF73CFAFFF700FDFFF762FBF2
:10363000FFF714FBFFF7EEFBFFF782FCFFF75EFCE2
:10364000FFF72EFBFFF7A6FCFFF706FC0022052183
:103650001420FEF789FA1420FEF778FA00220521DB
:103660003720FEF781FA3720FEF770FA0448FCF79E
:10367000DBFEFFF7ADFCFFF729FB00F011F8FEE7DA
:10368000944200080021842800D0C11C08467047DD
:1036900010B5002800D1012000F052FB002010BD21
:1036A00010B500F075FB002010BD30B585B00446A4
:1036B0000D466169B4F90800002910D0A16971B103
:1036C000FFF7E0FF6269A1690192029100902B4629
:1036D00022692168606800F0A5FC049010E0FFF703
:1036E000D1FF04A901910090208A2B4682B2216863
:1036F000606800F061FC012802D005B0002030BDF8
:10370000049805B030BD00002DE9F04104460F4695
:10371000194EF5683068001D00F044FA48B9306869
:10372000012190F82C0001FA00F0316921EA000033
:103730003061B4F1FF3F07D137B13068BDE8F041E7
:10374000011D0E4800F075BA2C4430684460AC424C
:1037500006D23068011DB06BBDE8F04100F04EBAF2
:103760003068011D706B00F049FAB06A844200D2E3
:10377000B462BDE8F0810000300000208C0600201B
:1037800070B5044600F062FA1C4DA868401CA860A1
:10379000286810B1686938B10CE02C60A86801286D
:1037A00008D100F0EDF805E02868E16AC06A8842B7
:1037B00000D82C60686A401C6862E06A01212A69AE
:1037C0008140114329610E4900EB800001EB80002C
:1037D000211D00F02EFA00F059FA686900280CD07B
:1037E0002868E16AC06A884207D206494FF08050D3
:1037F0000860BFF34F8FBFF36F8F70BD30000020A4
:10380000B005002004ED00E070B50D4C60680028A4
:1038100015D00C4E00F01AFAF068C568281D00F0AB
:10382000C1F9A068401EA0606068401E606000F0A2
:103830002DFA284600F008F860680028EAD170BD2B
:10384000300000207806002010B5044694F851108E
:1038500000290BD0012911D0022914D0502080F367
:103860001188BFF34F8FBFF36F8FFEE7206B00F01F
:1038700023FA2046BDE8104000F01EBA2046BDE8FD
:10388000104000F019BA10BD4FF47051104810F0FC
:10389000070F06D0C01D20F007000D49411AC1F5E1
:1038A00070510C4A1060002353600144083921F024
:1038B0000701183A11604B600B600B1A43600160FE
:1038C0004068906050604FF00040506170470000C9
:1038D000A006002084000020074E4FF08054074DC2
:1038E000FFF792FF30680128FAD92C60BFF34F8FA1
:1038F000BFF36F8FF4E70000B005002004ED00E097
:103900002DE9F0478146099E089D0A9C9A46521E61
:10391000206B00EB820020F00708002700290CD064
:10392000002023180A5C83F834200A5C12B1401C82
:103930001028F6D384F8437001E084F83470072D22
:1039400000D30625E5626564A764201D00F053F9E5
:1039500004F1180000F04FF92461C5F10700A061DF
:103960006462E76484F8507052464946404600F06D
:1039700003F92060002E00D03460BDE8F08700001D
:1039800070B500240F4D04EB840005EB800000F0BF
:1039900027F9641C072CF6D30B4800F021F90B48DB
:1039A00000F01EF90A4800F01BF90A4800F018F967
:1039B000094800F015F9094803494163143181634E
:1039C00070BD0000B00500203C060020500600201D
:1039D00064060020780600208C06002030000020BD
:1039E00010B4144900E011460A688242FBD34B68C8
:1039F00003EB010C844503D1406818444860084635
:103A00000C68D0F804C00CEB0003A3420CD10A4BA5
:103A10001B689A4206D05268624442600A68126883
:103A2000026002E0036000E00260814200D00860B2
:103A300010BC7047840000206C0000200749486BD0
:103A40000068002805D0486BC068C068406888627C
:103A500070474FF0FF308862704700003000002050
:103A60000A484068B0F1FF3F07D0502080F311882A
:103A7000BFF34F8FBFF36F8FFEE7502080F31188A5
:103A8000BFF34F8FBFF36F8FFEE700008C00002065
:103A90002DE9F0410546002600F0BEF9344F3868A4
:103AA00008B9FFF7F1FE7869054251D19DB108359B
:103AB00015F0070F0FD005F00700C0F1080005440E
:103AC00015F0070F07D0502080F31188BFF34F8FF8
:103AD000BFF36F8FFEE7002D3AD07868854237D864
:103AE00024490846046801E0214604466068A8426B
:103AF00002D220680028F7D13868844228D00868AC
:103B000000F10806206808606068411B10290FD981
:103B1000601910F0070F07D0502080F31188BFF311
:103B20004F8FBFF36F8FFEE741606560FFF758FF6F
:103B300061687868401A7860BA68904200D2B860CC
:103B400078690843606000202060F868401CF860D5
:103B500000F010FB16F0070F07D0502080F31188FB
:103B6000BFF34F8FBFF36F8FFEE73046BDE8F081A4
:103B70006C00002084000020001F4FF08073036061
:103B8000001F21F001010160001F05490160143888
:103B90000260001F6FF002010160203870470000D2
:103BA000613A00080169436882689A6083684268E4
:103BB0005A604A68824201D182684A6000220261EA
:103BC0000868401E0860086870470000034B0360E7
:103BD00003F154000860802010607047A4000020AA
:103BE00000F1080141604FF0FF328260C160016165
:103BF00000210160704700210161704710B4D1F8C5
:103C000000C0BCF1FF3F02D000F1080202E00269EF
:103C100004E01A4653681C686445FAD953684B603F
:103C200099608A60516008610168491C016010BC9C
:103C3000704742684A6093688B60936859609160EE
:103C400008610168491C016070470000502080F342
:103C50001188BFF34F8FBFF36F8F0A494868401C2C
:103C6000486001280CD10848006810F0FF0F07D009
:103C7000502080F31188BFF34F8FBFF36F8FFEE7A3
:103C8000704700008C00002004ED00E009494868FE
:103C9000002806D0401E4860002801D180F311881A
:103CA0007047502080F31188BFF34F8FBFF36F8FA1
:103CB000FEE700008C00002070B500282AD0A0F19B
:103CC0000804154D60686969084207D1502080F3E7
:103CD0001188BFF34F8FBFF36F8FFEE722683AB1B1
:103CE000502080F31188BFF34F8FBFF36F8FFEE733
:103CF0008843606000F090F8606869680844686014
:103D00002046FFF76DFE2869401C2861BDE8704021
:103D100000F030BA70BD00006C0000204FF0E020D1
:103D200000210161816105494FF47A720968B1FB94
:103D3000F2F1491E41610721016170471000002026
:103D400010B502460020002A12D00F48006B38B18F
:103D5000502080F31188BFF34F8FBFF36F8FFEE7C2
:103D600000F05AF800211046FFF7CEFC00F002FAEE
:103D7000002807D105494FF080500860BFF34F8FEE
:103D8000BFF36F8F10BD00003000002004ED00E095
:103D900010B586B000240594049403AA04A905A8CC
:103DA000FFF714FF059804990191029000230094F5
:103DB00015A11748039A00F035F91649C86208B1F1
:103DC000012000E0002001280AD0B0F1FF3F19D106
:103DD000502080F31188BFF34F8FBFF36F8FFEE742
:103DE000502080F31188BFF34F8FBFF36F8F4FF0D8
:103DF000FF30886201204861CC6006B0BDE8104009
:103E000000F042B806B010BD49444C450000000027
:103E1000D9380008300000200248016B491C0163BA
:103E20007047000030000020154A106B002802D0B7
:103E30000120D06170470020D0611069B0FA80F095
:103E4000C0F11F000F4900EB800051F8203073B122
:103E500001EB800041684968416000F10803994224
:103E600001D1496841604068C068106070475020C7
:103E700080F31188BFF34F8FBFF36F8FFEE7000011
:103E800030000020B005002010B582B0384801682D
:103E9000384A914207D1502080F31188BFF34F8FE9
:103EA000BFF36F8FFEE700683349884207D1502087
:103EB00080F31188BFF34F8FBFF36F8FFEE72F4959
:103EC00008780190FF200870087800909DF80000A5
:103ED0009DF8002000F0F000904207D0502080F3C1
:103EE0001188BFF34F8FBFF36F8FFEE79DF800007F
:103EF000234C00F0500020700720A0609DF80000C7
:103F000010F0800F0BD0A068401EA0609DF800004C
:103F1000400000909DF8000010F0800FF3D1A068E1
:103F2000032807D0502080F31188BFF34F8FBFF3D1
:103F30006F8FFEE74FF44070A06001980870114841
:103F4000016841F470010160016841F07041016055
:103F5000FFF7E4FE00206060FCF792F90A48016870
:103F600041F040410160FCF777F902B0002010BD3C
:103F700000ED00E071C20F4170C20F4100E400E0AB
:103F80008C00002020ED00E034EF00E010B5502060
:103F900080F31188BFF34F8FBFF36F8F00F080F86D
:103FA00018B104494FF080500860002080F3118858
:103FB00010BD000004ED00E02DE9F04F85B0814612
:103FC0000F9F0E9E8A4690469B464FEA8800FFF759
:103FD0005FFD054628000AD05420FFF759FD04462E
:103FE0000CB1256304E02846FFF766FE00E00024DC
:103FF0009CB1002084F8510003905B464246514634
:104000000197009602944846FFF77AFC2046FFF796
:10401000B7FB05B00120BDE8F08F05B04FF0FF30D1
:10402000BDE8F08F70B586B00646DDF828C00C9C60
:104030000B98002816D0ECB154250495206302207B
:1040400084F85100002005AD0390CDF800C0019523
:1040500002943046FFF754FC2046FFF791FB059889
:1040600006B070BD502080F31188BFF34F8FBFF3AF
:104070006F8FFEE7502080F31188BFF34F8FBFF39F
:104080006F8FFEE705484169002903D0006B18B126
:104090000020704701207047022070473000002048
:1040A0002DE9F0470026314F386B002805D0B8695C
:1040B000401CB8613046BDE8F087F868451CFD60DB
:1040C0009DB9786B006838B1502080F31188BFF338
:1040D0004F8FBFF36F8FFEE7786BB96B7963B8636F
:1040E000386A401C3862FFF7A9FCB86ADFF88080A4
:1040F00085420FD34FF00109786B006838B1786BB7
:10410000C068C4686068854212D2B86202E04FF0AD
:10411000FF30B8623868C06A00EB800058F82000B1
:10412000012800D90126F8690028C3D00126C1E77B
:10413000201DFFF737FDA06A18B104F11800FFF742
:1041400031FDE16A3A6909FA01F01043386101EB87
:10415000810008EB8000211DFFF76BFDE06A3968E4
:10416000C96A8842C8D30126C6E700003000002093
:10417000B00500202DE9F0470024A0462D4D286B06
:10418000002807D0FFF762FD286B401E2863286BCC
:1041900040B149E0502080F31188BFF34F8FBFF347
:1041A0006F8FFEE7A86800283ED0234F38680126AD
:1041B00000B3A7F1B409F868C46804F11800FFF768
:1041C000F1FC201DFFF7EEFCE06A2A6906FA00F117
:1041D0001143296100EB800009EB8000211DFFF7EE
:1041E00028FDE06A2968C96A884200D3EE61386810
:1041F0000028E0D10CB1FFF721FCAC6944B1FFF716
:104200004FFF00B1EE61641E002CF8D10020A861C0
:10421000E86948B14FF0010808494FF08050086044
:10422000BFF34F8FBFF36F8FFFF730FD4046BDE800
:10423000F0870000300000206406002004ED00E05C
:104240004FF04070E1EE100A70470000F4420008A1
:104250000D30000800000000000000008000000099
:1042600000000000000000000006101600061016F6
:104270000000000000000000010203040607080916
:1042800000000000010203043A7474003A747400E0
:104290003A7474000D0A2A2A2A2A20536572696129
:1042A0006C204F7574707574204D6573736167650C
:1042B00020627920444D41202A2A2A0D0A202020FC
:1042C0005541525420444D412054657374200D0AC9
:1042D0002020EFBFBDEFBFBD20EFBFBDEFBFBDEFE3
:1042E000BFBDEFBFBDEFBFBDEFBFBDEFBFBDEFBFF8
:1042F000BD00000064656661756C745461736B0089
:104300002043000800000020A4000000C4010008B1
:10431000C4430008A40000205C490000E00100083C
:10432000000000000100000010000000000000007C
:104330000024F40000000000000000000000000065
:10434000000000000000000000000000000000006D
:10435000000000000000000000000000000000005D
:10436000000000000000000000000000000000004D
:10437000000000000000000000000000000000003D
:10438000000000000000000000000000000000002D
:10439000000000000000000000000000000000001D
:1043A000000000000000000000000000000000000D
:1043B000AAAAAAAA00000000000000000000000055
:0443C00000000000F9
:040000050800018965
:00000001FF
