:020000040800F2
:10000000A809002029020008EB250008A122000809
:10001000E9250008B1040008A12C00080000000038
:100020000000000000000000000000002B26000877
:100030007D05000800000000292600082D26000884
:10004000430200084302000843020008430200087C
:10005000430200084302000843020008430200086C
:10006000430200084302000843020008430200085C
:10007000C104000843020008CD0400084302000840
:10008000430200084302000843020008430200083C
:10009000B5040008430200084302000843020008B8
:1000A000430200084302000843020008430200081C
:1000B000430200084302000843020008430200080C
:1000C00043020008430200084302000843020008FC
:1000D000430200084302000843020008952C000870
:1000E00043020008430200084302000843020008DC
:1000F00043020008430200084302000843020008CC
:1001000043020008430200084302000843020008BB
:10011000430200084302000843020008D9260008F1
:10012000430200084302000843020008430200089B
:10013000430200084302000843020008430200088B
:10014000430200084302000843020008430200087B
:10015000430200084302000843020008430200086B
:10016000430200084302000843020008430200085B
:100170004302000843020008430200080000000098
:10018000430200084302000800F002F800F03CF8C7
:100190000AA090E8000C82448344AAF10107DA45E2
:1001A00001D100F031F8AFF2090EBAE80F0013F0F8
:1001B000010F18BFFB1A43F001031847F02B000092
:1001C000102C0000103A24BF78C878C1FAD8520722
:1001D00024BF30C830C144BF04680C6070470000C1
:1001E0000023002400250026103A28BF78C1FBD840
:1001F000520728BF30C148BF0B6070471FB502F0DF
:1002000099FD1FBD10B510BD00F00CF91146FFF7A8
:10021000F5FF02F063FD00F03EF903B4FFF7F2FFD3
:1002200003BC02F04EFD0000094880470948004722
:10023000FEE7FEE7FEE7FEE7FEE7FEE7FEE7FEE796
:10024000FEE7FEE704480549054A064B70470000F3
:10025000C926000889010008A8030020A809002079
:10026000A8050020A8050020704753EA020C00F002
:1002700069802DE9F04B4FF00006002B1FBFB3FA49
:1002800083F503FA05F424FA05F65E4012BF16431F
:10029000B2FA82F502FA05F4C5F120051EBF22FA72
:1002A00005FC44EA0C04203556EA044C4FEA144499
:1002B00018BF641C4FF000084FF00009904271EB2A
:1002C000030C39D3002919BFB1FA81F701FA07F6F7
:1002D000B0FA80F700FA07F6C7F120071EBF20FA30
:1002E00007FC46EA0C062037B6FBF4FCA7EB050733
:1002F000103F07F01F0BCBF120060CFA0BFB2CFA7A
:1003000006F644BFB3460026202FA4BF5E464FF03A
:10031000000B5BEA060C08BF4FF0010B19EB0B0951
:10032000ABFB027C48EB0608C01B06FB02CC0BFBB8
:1003300003CC71EB0C01C1E70B460246414648462F
:10034000BDE8F08B13B54FF000004FF00001AFF3A4
:100350000080BDE81C4070470FB4044910B503AAE3
:10036000029800F031F810BC5DF814FB000000208A
:100370004FF0000200B5134694469646203922BF3E
:10038000A0E80C50A0E80C50B1F12001BFF4F7AF89
:10039000090728BFA0E80C5048BF0CC05DF804EB6B
:1003A000890028BF40F8042B08BF704748BF20F8D9
:1003B000022B11F0804F18BF00F8012B70477047D7
:1003C0007047704770470000074B70B50D467B447F
:1003D00000F011F80446284600F020F810B14FF064
:1003E000FF3070BD204670BDF328000001694A1C33
:1003F00002610878704700B58FB0CDE90131002166
:10040000059105497944CDE903101146684600F08D
:100410002EF80FB000BD0000E5FFFFFF007B00F0ED
:1004200080007047754600F03FF8AE46050069460B
:10043000534620F00700854618B020B5FFF702FFAD
:10044000BDE820404FF000064FF000074FF00008D5
:100450004FF0000B21F00701AC46ACE8C009ACE856
:10046000C009ACE8C009ACE8C0098D4670472DE969
:10047000F04106460024D6E90170F5688046304612
:1004800003E04146B847641C3046A8470028F8D12D
:100490002046BDE8F08110B50446AFF30080204649
:1004A000BDE81040FFF7B9BE004870474803002080
:1004B000FEE70000014800F0D9B80000300000203D
:1004C000014800F01BBB00002C020020014800F096
:1004D00015BB0000CC01002001681823CAB2103AF5
:1004E000B2FBF3F2054B6FF30901032A9B5CC36572
:1004F00000D9091D81650846704700003E2D00089F
:1005000010B5014600208B698A6A4FF0C07453B160
:10051000B3F5005F15D072B1012A0CD0022A0AD0BF
:10052000032A09D104E01AB1012A06D0022A03D114
:10053000C96AC90100D5012010BDC96AA142FAD01B
:1005400010BD002AF7D0012AF2D0022AF3D0032AE4
:10055000F3D010BD30B50468256825F480252560EA
:10056000046863608368402B036803D09960006867
:10057000C26030BD9A600068C16030BD704772B61D
:10058000FEE7704730B590F82040012C05D0022CD2
:1005900003D0416A41F480215DE00468002955D010
:1005A0002469A40754D04FF4D874056804EB0114EF
:1005B0002D5915F00405956005682D594ED0ED08AC
:1005C000556005682C5904F00204D4604FF4DA74C5
:1005D000056804EB01142D5905F00F051561056838
:1005E0002D59C5F30725956105682C59240C5461D4
:1005F0004FF4DC72046802EB0112A4581C7004680A
:10060000A458240A5C700468A458240C9C700468E4
:10061000A258120EDA704FF4DE72046802EB011277
:10062000A4581C710468A458240A5C710468A45876
:10063000240C9C710468A258120EDA71006881B112
:10064000016941F020010161002030BDE468A8E7A4
:10065000416A41F400114162012030BD6D0D156009
:10066000AFE7C16841F02001C160EDE72DE9F05F1F
:100670000546006800244669D0F804908768D0F8E1
:100680000CB0D0F810A0D0F81880F10748D0F907C6
:1006900014D001218160B80703D5284600F0CCF9B9
:1006A0000CE0780702D54FF4006407E0380702D564
:1006B0004FF4805402E0284600F0BDF9F80516D545
:1006C00029684FF480708860B80503D5284600F08B
:1006D000B5F90CE0780502D544F4005407E038057C
:1006E00002D544F4804402E0284600F0A6F9F8035D
:1006F00016D529684FF480308860B80303D52846A2
:1007000000F09EF90CE0780302D544F4004407E0C1
:10071000380302D544F4803402E0284600F08FF913
:10072000300707D55FEACB6004D52968102044F470
:100730000074C86070074FF0080707D55FEA0B70B8
:1007400004D52868C760284600F050F9B00706D5E0
:100750002868C068800702D0284600F049F9700672
:1007600007D55FEACA6004D52968102044F4806484
:100770000861B00607D55FEA0A7004D528680761EA
:10078000284600F055F9F00606D52868006980076C
:1007900002D0284600F04DF9B00308D55FEAC960E1
:1007A00005D5296810204860284600F043F9F00379
:1007B00007D55FEA097004D528684760284600F02D
:1007C00040F9300446D55FEA497040D5F00504D5BC
:1007D0005FEAC87001D044F00104B00504D55FEAB7
:1007E000887001D544F00204700504D55FEA4870B2
:1007F00001D544F00404300529D518F0700F26D037
:1008000008F07000402815D006DC102809D02028F8
:100810000AD0302816D10AE050280ED0602811D115
:100820000EE044F008040DE044F010040AE044F047
:10083000200407E044F0400404E044F0800401E0B8
:1008400044F480742868816921F07001816129680D
:1008500004204860002C05D0686A2043686228465E
:10086000FFF78FFEBDE8F09F70B5040003D094F849
:10087000200010B104E0012070BD204600F082F895
:100880002068016841F00101016000F0C1FB0546EC
:10089000052604E000F0BCFB401B0A2811D82068A4
:1008A0004068C007F6D02068016821F002010160AD
:1008B00000F0AEFB05460BE000F0AAFB401B0A2847
:1008C00006D9606A40F40030606284F82060D2E7A4
:1008D000206840688007EFD4207E012820680168E6
:1008E0003DD021F080010160607E01282068016810
:1008F00038D021F040010160A07E01282068016805
:1009000033D021F020010160E07E012820680168D9
:100910002ED041F010010160207F0128206801687D
:1009200029D021F008010160607F0128206801685A
:1009300024D021F004010160D4E902010843D4E984
:100940000412114308436168491E08432168C861C5
:1009500000206062012084F82000002070BD41F07A
:100960008001C0E741F04001C5E741F02001CAE73E
:1009700021F01001CFE741F00801D4E741F0040174
:10098000D9E7000010B586B0044614216846FFF789
:10099000EFFC1349206888421FD1124800210268E9
:1009A00042F000720260006800F0007005900D488F
:1009B0001038026842F0080202600068022200F06B
:1009C000080005900320CDE90210CDE900020920BE
:1009D00004906946044800F015FA06B010BD000006
:1009E0000064004040380240000C024070470000A4
:1009F00010B50C4A0168914212D10B4B0B4A0021F1
:100A0000FFF7C0FD084801884ABA00F108010A80D2
:100A1000428852BA4A80828852BA8A808079C880D5
:100A200010BD0000006400401E000020B402002041
:100A300070477047704770477047704770477047FE
:100A4000704770472DE9F0410446876D00F0E0FAE9
:100A5000064694F835000025022806D080206065FF
:100A600084F834500120BDE8F0812068016821F04D
:100A7000160101602068416921F080014161206C0C
:100A800008B9A06C20B12068016821F0080101605C
:100A90002068016821F0010101600CE000F0B8FA63
:100AA000801B052807D920206065032084F83500C5
:100AB00084F83450D7E720680068C007EED194F876
:100AC0005C103F208840B860012084F8350084F82D
:100AD00034500020C7E790F83510022903D0802158
:100AE000416501207047052180F8351000680168D4
:100AF00021F0010101600020704700002DE9F8435A
:100B000004464FF00009CDF8009063484FF41651A9
:100B1000A56D0068B0FBF1F72E6894F85C10082012
:100B200000FA01F131420FD021680A6852070BD553
:100B30000A6822F004020A6094F85C108840A860F9
:100B4000606D40F00100606594F85C104FF00108A2
:100B500008FA01F0304208D021684969090604D535
:100B6000A860606D40F00200606594F85C1004209D
:100B70008840304208D021680968890704D5A860F8
:100B8000606D40F00400606594F85C1010208840AF
:100B9000304218D021680968090714D5A860206878
:100BA0000168490304D50068000308D5A16C07E07B
:100BB0000168C90503D4016821F008010160216CB6
:100BC00009B12046884794F85C10202088403042C4
:100BD00031D021680968C9062DD5A86094F8350080
:100BE00005282068016806D0490347D5006800033E
:100BF0001DD4616C1CE021F0160101602068416980
:100C000021F080014161206C08B9A06C20B12068FE
:100C1000016821F00801016094F85C103F208840D1
:100C2000A86084F8358084F83490216D1FE0E16B72
:100C300009B120468847606D00282BD0606DC00741
:100C400014D0052084F835002068016821F00101E6
:100C500001600098401C0090B84203D820680068EA
:100C6000C007F6D184F8358084F83490E16C00290F
:100C700010D001B02046BDE8F04308470168C9051F
:100C8000D5D4016821F01001016084F8358084F822
:100C90003490CCE7BDE8F883100000202DE9F04146
:100CA000044600F0B5F906465CB1022084F8350030
:100CB000002584F834502068016821F001010160AA
:100CC0000DE00120BDE8F08100F0A2F9801B0528AD
:100CD00005D920206065032084F83500F2E72068FC
:100CE0000068C007F0D12268116820480140D4E9AB
:100CF00001031843D4E903363343184363691843A7
:100D0000A3691843E3691843236A18430843616AD7
:100D1000042903D1D4E90B13194308431060206858
:100D20004069666A20F0070130460E430127042817
:100D30000CD1A06A0643E06A40B12046FFF7E0FB11
:100D400020B14020606584F83570BAE720684661BC
:100D50002046FFF7C1FB94F85C203F219140816061
:100D6000656584F835700020ACE700003F8010F026
:100D70002DE9F0410446866D90F8340000250128E5
:100D80000DD0012084F8340094F835700020012F34
:100D900007D084F8340002252846BDE8F0810220FF
:100DA000FBE7022784F8357060652046FFF7D2FB29
:100DB00094F85C103F208840B0602068016841F0E2
:100DC00016010160206C20B12068016841F0080123
:100DD00001602068016841F001010160DCE700006A
:100DE00070B5044600F014F90546601C02D00448B2
:100DF0000078044400F00CF9401BA042FAD370BD07
:100E0000040000202DE9F84FDFF8BCA100220125E5
:100E10000AF1040B03264FF00F090BF1040E00BF7B
:100E20000B6805FA02F42340A34270D10F7907F052
:100E30000307012F01D0022F16D187684FEA42081D
:100E400006FA08FC27EA0C07D1F80CC00CFA08FCDB
:100E50004CEA070CC0F808C04768A7430C79C4F3F4
:100E6000001494403C4344600C79E443A4070AD046
:100E7000C4684FEA420C06FA0CF7BC438F6807FAC5
:100E80000CF72743C7600C7904F00304022C12D13D
:100E9000D40800EB840CDCF820405707FF0E09FA59
:100EA00007F824EA0804D1F8108008FA07F848EA9D
:100EB0000408CCF8208004684FEA420C06FA0CF7CC
:100EC000BC430F7907F0030707FA0CF727430760C5
:100ED0004C6814F4403F70D03C4C276847F480477E
:100EE0002760246822F0030704F480440094384CFF
:100EF00007EB040CDCF8084897074FEA177809FA63
:100F000008F7BC43334FB84202D1002724E054E035
:100F1000314FB84201D101271EE0304FB84201D114
:100F2000022719E02E4FB84201D1032714E02D4FBC
:100F3000B84201D104270FE02B4FB84201D1052759
:100F40000AE02A4FB84201D1062705E0284FB842EF
:100F500001D1072700E0082707FA08F72743CCF854
:100F60000878DAF800405746D1F804C09C435FEA9D
:100F7000CC3C00D51C433C60DBF800405F46D1F818
:100F800004C09C435FEA8C3C00D51C433C60DEF807
:100F900000407746D1F804C09C435FEACC2C00D5D2
:100FA0001C433C60084F0C373C68D1F804C09C439C
:100FB0005FEA8C2C00D51C433C60521C102AFFF4C5
:100FC0002FAFBDE8F88F0000003C014044380240DC
:100FD00000300140000002400004024000080240CE
:100FE000000C0240001002400014024000180240B1
:100FF000001C0240426921EA02030A4043EA02411E
:10100000816170470AB1816170470904FBE7000004
:101010000148806870470000040000200248816891
:101020000278114481607047040000200B4810B51D
:10103000016841F400710160016841F48061016060
:10104000016841F480710160032000F06FF80F2007
:1010500000F006F800F024F8002010BD003C02402B
:1010600070B50D4D04464FF47A712878B1FBF0F05D
:101070000A490968B1FBF0F000F09EFB48B9102C5A
:1010800007D200222146501E00F030F800206C608C
:1010900070BD012070BD0000040000201000002081
:1010A0000A4808B5016841F480410160006800F415
:1010B000804000900548001F016841F080510160A8
:1010C000006800F08050009008BD000044380240E5
:1010D000002809DB00F01F02012191404009800037
:1010E00000F1E020C0F8001170470000F0B40E4B92
:1010F0001B680C46C3F30223C3F10705042D00D976
:101100000425191D072901D2002300E0DB1E01265A
:1011100006FA05F1491E214099409E40761E164070
:101120003143F0BC01F0BDBD0CED00E0064900F01C
:10113000070208684FF6FF03184040EA0220034AFE
:1011400010430860704700000CED00E00000FA0555
:101150002DE9F0470E46050065D0DFF81481D8F878
:101160000000F7B200F00700B04207D288F8007024
:10117000D8F8000000F00700B04254D128683D4C78
:10118000810712D5400703D5206840F4E050206065
:101190002878000703D5206840F46040206020686C
:1011A000A96820F0F000084320602878C0072DD0FF
:1011B000304968680839012812D0022813D0032862
:1011C00011D00968890700292DDA216821F003016F
:1011D00001432160FFF71CFF814641F2883A0EE08F
:1011E00009688903EFE709688901ECE7FFF710FF59
:1011F000A0EB0901514502D90320BDE8F087206822
:10120000696800F00C00B0EB810FEFD1D8F8001046
:10121000404601F00701B14207D90770006800F0AD
:101220000700B04201D00120E7E72878400705D544
:101230002068E96820F4E05008432060287800071F
:1012400006D52068296920F4604040EAC10020608A
:1012500000F038F82168084AC1F30311515CC84016
:101260000649086006480068FFF7FAFE0020C4E758
:10127000003C024008380240462D000810000020C3
:10128000080000200448054900680968044AC1F3C1
:101290008221515CC840704710000020083802408D
:1012A000562D00080448054900680968044AC1F33E
:1012B0004231515CC840704710000020083802409D
:1012C000562D0008154810B5006810F00C0214489F
:1012D00013D01449042A0FD0082A0ED10F4C241F12
:1012E0002268236802F03F025B0207D52068C0F342
:1012F0008810A0FB010106E0084610BD2168C1F37B
:101300008811A1FB00010023FEF7AFFF2168C1F3A4
:101310000141491C4900B0FBF1F010BD0838024002
:101320000024F40040787D012DE9F84F04006ED0D0
:101330002078DFF84C93C007A9F104054AD009F1E1
:1013400004000168C1F38101012908D00068C0F3DD
:10135000810002280AD1D9F80000400206D5286889
:10136000800337D560680028E1D033E06068B0F5CD
:10137000803F10D0B0F5A02F286810D020F4803026
:101380002860286820F4802028606068A8B1FFF7F2
:101390003FFE06460DE0286840F48030F4E740F454
:1013A00080202860F7E700BFFFF732FE801B64282B
:1013B00073D828688003F7D50CE0FFF729FE0646AE
:1013C00005E000BFFFF724FE801B6428F0D82868E2
:1013D0008003F7D42078DFF8AC8280074FF0000A52
:1013E0003ED5A748001D016811F00C0F08D0006819
:1013F000C0F3810002280BD1D9F80000400207D4C5
:101400002868800716D5E068012800D112E033E192
:10141000E068B8B10120C8F80000FFF7F9FD064602
:1014200005E000BFFFF7F4FD801B0228C0D8286844
:101430008007F7D52868216920F0F80040EAC1004C
:1014400028600DE0C8F800A0FFF7E2FD064604E0C2
:10145000FFF7DEFD801B02281FD828688007F7D41D
:101460002078000722D5864F87486169703771B1AF
:1014700001210160FFF7CCFD064604E0FFF7C8FD3F
:10148000801B022809D838688007F7D50EE0C0F81D
:1014900000A0FFF7BDFD064605E082E0FFF7B8FDBE
:1014A000801B02287DD838688007F7D42078400751
:1014B00068D5DFF8CCB100270BF13C0BDBF800005E
:1014C000C0000BD4DBF8001041F08051CBF80010C5
:1014D000DBF80000012700F0805000906B4E306870
:1014E000C00510D4306840F480703060FFF790FD84
:1014F000009005E0FFF78CFD0099401A022850D8B3
:101500003068C005F6D55E4EA0686C3601280FD055
:101510000528306810D020F001003060306820F0DD
:1015200004003060A068B8B1FFF772FD00900FE0D2
:10153000306840F00100F4E740F004003060F7E765
:10154000FFF766FD0099411A41F28830814266D862
:1015500030688007F4D50EE0FFF75AFD009007E0F1
:10156000FFF756FD0099411A41F28830814256D862
:1015700030688007F4D42FB1DBF8001021F08051DF
:10158000CBF80010A069C8B33D49091D0968C1F333
:10159000810102294AD00228504607D0C8F86000CD
:1015A00000E03CE0FFF734FD04463BE04746C8F866
:1015B0006000FFF72DFD064605E000BFFFF728FDA0
:1015C000801B02282BD828688001F7D4D4E90701B2
:1015D0000843A16A2E4A490802EB0141626A41EAC6
:1015E0008211084394F82C1040EA0161C9F80010F8
:1015F00001203866FFF70CFD044606E03EE000BF20
:10160000FFF706FD001B022809D828688001F7D5DE
:1016100034E000BFFFF7FCFC001B022802D90320C6
:10162000BDE8F88F28688001F4D427E00128F7D0BE
:10163000D9F80000E26900F4800191421CD1226ACD
:1016400000F03F01914217D147F6C071626A014034
:10165000B1EB821F10D1A26A4FF0FF3300F440318A
:1016600003EB5202B1EB024F06D194F82C1000F0BC
:101670007060B0EB016F01D00120D1E70020CFE70F
:101680000438024000004742800E4742007000408C
:101690000000FFFF70B5040009D0606A002540B16A
:1016A00025616561A56294F8510040B10CE001200C
:1016B00070BD6068B0F5827FF4D0E561F2E784F830
:1016C0005050204600F044F8022084F85100206871
:1016D000016821F040010160A088218900F4827036
:1016E00001F404410843A18901F400610843217C0D
:1016F00001F002010843217D01F001010843218B23
:1017000001F400710843217F01F03801084394F887
:10171000201001F080010843218D01F4005108439D
:1017200021680860A069042101EA104094F824109F
:1017300001F010010843216848602068C16921F464
:101740000061C1616565012084F85100002070BD11
:1017500010B586B0044614216846FEF709FE134909
:101760002068884220D112480021026842F4805249
:101770000260006800F4805005900D48143802683B
:1017800042F001020260006800F001000590E020D4
:1017900000900220CDE90101032003900520049070
:1017A00069460448FFF72EFB06B010BD003001402B
:1017B000443802400000024010B5401EB0F1807F66
:1017C00001D3012010BD4FF0E02460610F216017AC
:1017D00001F067FA0020A06107202061002010BD01
:1017E0007047704770B590F83C20012A32D0012430
:1017F00080F83C40022280F83D2003685A689D68CA
:1018000022F070060A6832435A60134B02689A420B
:1018100014D0B2F1804F11D0104B9A420ED0104B21
:101820009A420BD00F4B9A4208D00F4B9A4205D0E8
:101830000E4B9A4202D00E4B9A4204D1496825F0D1
:1018400080031943916080F83D40002180F83C10EE
:10185000084670BD022070BD000001400004004039
:1018600000080040000C004000040140004001401E
:101870000018004010B5040003D094F83D0010B1EA
:1018800007E0012010BD002084F83C00204600F055
:101890001FF8022084F83D00211D206800F022FF7F
:1018A000012084F8460084F83E0084F83F0084F864
:1018B000400084F8410084F8420084F8430084F832
:1018C000440084F8450084F83D00002010BD00006D
:1018D00008B5124A01681248914207D1016841F0E7
:1018E00004010160006800F0040009E00D4A914223
:1018F00008D1016841F010010160006800F010009B
:10190000009008BD084A9142FBD1016841F02001D6
:101910000160006800F02000F2E7000000080040CD
:1019200040380240001000400014004090F83D1084
:10193000012901D001207047022180F83D10016883
:10194000CA6842F00102CA6000681149884214D096
:10195000B0F1804F11D00F4988420ED00E49884215
:101960000BD00E49884208D00D49884205D00D4958
:10197000884202D00C49884204D1816801F00701F5
:10198000062903D0016841F0010101600020704781
:10199000000001400004004000080040000C00402E
:1019A00000040140004001400018004070B50446AA
:1019B00090F83C000025012817D0012684F83C60EF
:1019C000022084F83D002068826822F0770222F429
:1019D0007F4282600868502838D00DDC20284FD024
:1019E00005DC90B3102811D14AE0022070BD3028E8
:1019F00046D040280AD13BE060282FD070280DD077
:101A0000B0F5805F03D0B0F5005F12D0012584F8F7
:101A10003D60002084F83C00284670BDCB68D1E9C9
:101A20000121206800F0CFFE2068816841F0770135
:101A300009E0CB68D1E90121206800F0C4FE2068EC
:101A4000816841F480418160E1E719E0CA68496832
:101A5000206800F08DFF5021206806E0CA684968C0
:101A6000206800F096FF6021206800F0B6FECEE707
:101A7000CA684968206800F07BFF40212068F4E7CD
:101A8000226801461046F0E7704770B504460068CA
:101A900001694FF00005C943890715D4C168C943DE
:101AA000890711D4E91E016101202077206880692F
:101AB0008007204602D0FFF7E7FF04E000F0C0F8FF
:101AC000204600F052F9257720680169C94349078B
:101AD00017D4C168C943490713D46FF004010161E9
:101AE000022020772068806910F4407F204602D0D1
:101AF000FFF7CAFF04E000F0A3F8204600F035F934
:101B0000257720680169C943090716D4C168C9430C
:101B1000090712D46FF008010161042020772068C2
:101B2000C0698007204602D0FFF7AEFF04E000F056
:101B300087F8204600F019F9257720680169C94324
:101B4000C90617D4C168C943C90613D46FF0100180
:101B50000161082020772068C06910F4407F20468A
:101B600002D0FFF791FF04E000F06AF8204600F091
:101B7000FCF8257720680169C943C90708D1C16805
:101B8000C943C90704D1891E0161204600F052F9FA
:101B900020680169C943090609D4C168C943090617
:101BA00005D46FF0800101612046FFF719FE20681F
:101BB0000169C943490609D4C168C943490605D426
:101BC0006FF040010161204600F042F92068016990
:101BD000C94389060BD4C168C943890607D46FF08D
:101BE000200101612046BDE87040FFF7FABD70BDDD
:101BF00010B586B0044614216846FEF7B9FB0D49BE
:101C00002068884214D10C480021026842F0020288
:101C10000260006800F00200059080200090022021
:101C2000CDE90101CDE9031069460448FFF7EAF860
:101C300006B010BD000800403038024000040240E9
:101C4000704770B5044690F83C0000260D46012808
:101C50000FD0012084F83C006AB1042A1DD0082A64
:101C60002FD00C2A3FD00126002084F83C003046BB
:101C700070BD022070BD206800F0B8FD2068816949
:101C800041F0080181612068816921F004018161CE
:101C9000206881692A69114311E0206800F0D6FDAF
:101CA0002068816941F4006181612068816921F4C3
:101CB00080618161206881692A6941EA022181612C
:101CC000D2E7206800F0F8FD2068C16941F0080102
:101CD000C1612068C16921F00401C1612068C16946
:101CE0002A69114311E0206800F01AFE2068C169DA
:101CF00041F40061C1612068C16921F48061C16162
:101D00002068C1692A6941EA0221C161ACE710B5C6
:101D1000040003D094F83D0010B107E0012010BD8D
:101D2000002084F83C00204600F01EF8022084F8D1
:101D30003D00211D206800F0D5FC012084F84600FC
:101D400084F83E0084F83F0084F8400084F84100A5
:101D500084F8420084F8430084F8440084F8450085
:101D600084F83D00002010BD7047704710B5044650
:101D7000022249B104290ED0082913D094F8410059
:101D8000012816D0012010BD94F83E000128F9D199
:101D900084F83E200FE094F83F000128F2D184F847
:101DA0003F2008E094F840000128EBD184F840205F
:101DB00001E084F841200122206800F0F7FC164978
:101DC0002068164A884201D0904203D1436C43F404
:101DD000004343642068884213D0B0F1804F10D094
:101DE0000F4988420DD00F4988420AD00E498842D7
:101DF00007D0904205D00D49884202D00C49884254
:101E000004D1816801F00701062903D0016841F07F
:101E100001010160002010BD0000014000040140EC
:101E20000004004000080040000C00400040014059
:101E30000018004000680449884203D1012103488A
:101E4000FFF7D8B8704700000010004000100240B3
:101E50007047704770470000F8B50168044608688D
:101E6000CA684B6910F00F0F4FF0000559D003F00E
:101E7000010602F49077374365D0C10705D0D1053C
:101E800003D5216C41F001012164410705D5D90733
:101E900003D0216C41F002012164810705D5D907E7
:101EA00003D0216C41F004012164010707D502F041
:101EB0002001314303D0216C41F008012164216CE1
:101EC00000293AD0800604D5900602D5204600F0BD
:101ED000FAFD20684069216CC0F38010090700D426
:101EE00060B3204600F0BAFD20684069400621D565
:101EF0002068143050E8001F21F0400140E8001233
:101F0000002AF5D1A06BA8B16C490165A06BFEF762
:101F1000E2FD002811D0A06B016D01B0BDE8F040DA
:101F2000084783060FD593060DD52046BDE8F84037
:101F300000F0C9BD2046FFF78DFFF8BD2046FFF732
:101F400089FF2564F8BD266B2023012E79D1C606B2
:101F500077D5D60675D50868486800904869400668
:101F600040D5A16B086840680004000CEAD0A28D3F
:101F70008242E7D9E085C869B0F5807F2DD020681E
:101F80000C3050E8001F21F4807140E80012002A54
:101F9000F5D12068143050E8001F21F0010140E81D
:101FA0000012002AF5D12068143050E8001F21F0FB
:101FB000400140E80012002AF5D184F83E30256344
:101FC00020680C3050E8001F21F0100140E800129A
:101FD000002AF5D1A06BFEF735FDA08DE18D401AEA
:101FE00081B229E0A08DE18D401A81B2E08D0028F8
:101FF000A8D00029A6D020680C3050E8002F22F489
:10200000907240E80026002EF5D12068143050E888
:10201000002F22F0010240E80026002EF5D184F8BE
:102020003E30256320680C3050E8002F22F010026B
:1020300040E80023002BF5D12046FFF70AFFF8BD4A
:10204000FFE705062BD5150629D594F83D00212874
:10205000F5D1A068B0F5805F01D12069B0B1206AE8
:10206000411C2162216800784860E08C401E000419
:10207000000CE084E3D12068C16821F08001C160D8
:102080002068C16841F04001C160D8E7206A00883B
:10209000C0F308004860206A801C2062E5E7400623
:1020A000CDD55006CBD5CA68204622F04002CA6082
:1020B00084F83D3000F0F2F8C1E70000B7290008CD
:1020C00070B5040004D094F83D00002510B106E07E
:1020D000012070BD84F83C50204600F023F82420F5
:1020E00084F83D002068C16821F40051C160204699
:1020F00000F04AFD2068016921F4904101612068E7
:10210000416921F02A0141612068C16841F4005110
:10211000C1602564202084F83D0084F83E00002042
:1021200070BD00002DE9F04387B0064614216846D3
:10213000FEF71EF93049306888425AD12F480024F2
:10214000016841F480210160006800F4802005905E
:102150002A481038016841F00801016000686946AA
:1021600000F0080005904FF4407000900220CDE987
:10217000010403200390072004902148FEF742FE4B
:10218000214D20484FF00067E5E8020740204FF45A
:102190008068A5E811014FF4403945F814491A4800
:1021A000AC61C5E907496C62FEF778FD08B1FEF73E
:1021B000E6F97563AE63144D124860353038286017
:1021C000C5E90174C5E903486C61AC61C5E907491B
:1021D00028466C62FEF762FD08B1FEF7D0F9B563E0
:1021E000002211462720AE63FEF780FF2720FEF76E
:1021F0006FFF07B0BDE8F083004800404038024060
:10220000000C024058600240CC01002070470000E2
:1022100070B5044690F83D00202836D191B38AB3BA
:1022200094F83C00012830D0012084F83C00216261
:10223000A284E28400252564212084F83D00636B9C
:102240001348D863636B13481864636B1248D864EF
:10225000606B134605652668606B321DFEF788FDCE
:1022600021686FF04000086084F83C50206814300A
:1022700050E8001F41F0800140E80012002AF5D12B
:10228000002070BDFFE70120FBE70220F9E7000016
:10229000112A0008532A0008C72900087047704710
:1022A000FEE700000F4810B50D49016003214160B1
:1022B00000214FF4E0228160C0E903124FF4800254
:1022C0004261017641768176C17601774177FEF7EA
:1022D000CBFA002803D0BDE81040FEF750B910BD7E
:1022E00000640040300000200D4808B5016841F44A
:1022F000001101600068002200F4001000901146F7
:102300000C20FEF7F3FE0C20FEF7E2FE0022114641
:102310000E20FEF7EBFEBDE808400E20FEF7D8BE0B
:10232000303802402DE9F04186B014216846FEF7AE
:102330001FF838480024016841F0800101600168FD
:1023400001F080010591016841F00101016001681F
:1023500001F001010591016841F008010160016887
:1023600001F008010591016841F004010160016874
:1023700001F004010591016841F00201016001686A
:1023800001F002010591016841F01001016000684F
:10239000214E00F010000590002204213046FEF787
:1023A00031FE1E4F002240213846FEF72BFEDFF89B
:1023B0007080002201214046FEF724FE0420009098
:1023C0000125CDE90154694630460394FEF71AFD14
:1023D00040200090CDE90154694638460394FEF749
:1023E00011FD602000900220CDE90104032003903C
:1023F0000720049069460B48FEF704FD0095CDE9DF
:102400000154694640460394FEF7FCFC06B0BDE863
:10241000F081000030380240000002400008024015
:1024200000100240000C02400F4810B50D49016039
:102430004FF48271416000218160C1604FF40072ED
:102440000161C0E90512C1610162416281620A2134
:10245000C162FFF71FF9002803D0BDE81040FEF766
:102460008EB810BD003001405800002010B58EB06D
:1024700000240794089409940A940B941C2168463C
:102480000C94FDF775FF21481F4901605321C0E9F5
:10249000011440F2F311C0E9031480218161FFF7B8
:1024A000E9F908B1FEF76BF84FF48050079007A9DF
:1024B0001648FFF77BFA08B1FEF761F81348FFF7FB
:1024C00026FC08B1FEF75BF80B940BA90F480C949F
:1024D000FFF788F908B1FEF752F86020CDE9000453
:1024E000022002900422694604940848FFF7A9FBE1
:1024F00008B1FEF744F80548FFF7EAF90348FFF78B
:1025000077FB0EB010BD000000080040B0000020B6
:102510001CB500240E4800940C490194C0E9001435
:102520004FF6FF71C0E902418461FFF7A3F908B1DA
:10253000FEF725F80094694605480194FFF752F923
:10254000002801D0FEF71BF81CBD00000010004061
:10255000F80000201CB50024124800941049019492
:10256000016042F2CF01C0E9011442F20F71C16073
:1025700080218161FFF77EF908B1FEF700F8102095
:10258000CDE9000469460748FFF72CF908B1FDF7CB
:10259000F6FF0448FFF79CF90248FFF7C7F91CBD96
:1025A000001400404001002010B50D48FFF7BAFDAF
:1025B0000B480C490C2201604FF4E13141600021CD
:1025C0008160C160C0E904128161C161FFF778FDDB
:1025D00008B1FDF7D4FFBDE810400148FFF7A2BDE8
:1025E0008801002000480040FEE7FEE70024254661
:1025F00004210C48FFF7BAFB4FF4FA77094E01E0CB
:10260000641E00E0641CA4B2BC4200D3012504B9DE
:102610000025306884630520FEF7E2FB002DF1D031
:10262000EEE70000B000002070477047FEF7F6BCF0
:1026300030B593B030216846FDF79AFE14210CA8FE
:10264000FDF796FE1E480025016841F080510160AB
:10265000006800F0805011901A48016841F48041F0
:1026600001600068022400F4804011900120009075
:10267000000401908001CDE90640192008904FF434
:10268000A870CDE9090404200B906846FEF74CFEC3
:1026900008B172B6FEE70CA90F2081E831004FF4B3
:1026A000A0500F904FF48050109005210CA8FEF719
:1026B0004FFD002801D072B6FEE713B030BD000018
:1026C00040380240007000400248016841F4700147
:1026D0000160704788ED00E00148FFF7D6B90000BF
:1026E00040010020F0B50268254C264D264E274FAC
:1026F000274B4FF0804CA04209D0604507D0A8423C
:1027000005D0B04203D0B84201D0984204D122F0A3
:10271000700E4A6842EA0E02A0421BD0604519D0F2
:10272000A84217D0B04215D0B84213D0984211D069
:10273000184DA8420ED0184DA8420BD0174DA842F4
:1027400008D0174DA84205D0164DA84202D0164D0C
:10275000A84203D122F44075CA682A434D6922F089
:1027600080022A4302608A68C2620A688262A042CA
:1027700001D0984201D10969016301214161F0BD95
:10278000000001400004004000080040000C004030
:102790000004014000400140004401400048014065
:1027A00000180040001C00400020004010B501F05F
:1027B0001F030121046A99408C430462016A9A4014
:1027C0001143016210BD10B5846842EA032224F46B
:1027D0007F440A432243826010BD826822F0700267
:1027E0000A4342F00701816070470000F0B5026AB9
:1027F00022F001020262036A42688469124E24F0E8
:1028000073050C682C4323F002058B682B430D4D98
:10281000A84201D0B04205D123F00807CB683B4362
:1028200023F00403A84201D0B04205D14D6922F43F
:10283000407215438A692A43426084614968416352
:102840000362F0BD0000014000040140F0B5026ADF
:1028500022F010020262026A436884690D6824F45F
:10286000E64444EA05248D6822F0200242EA05127B
:102870000F4D104EA84201D0B04206D1CF6822F0D1
:10288000800242EA071222F04002A84201D0B04280
:1028900007D14D6923F4406343EA85038D6943EA18
:1028A000850343608461496881630262F0BD000072
:1028B0000000014000040140F0B5026A22F4807279
:1028C0000262026A4368C46922F4007224F073054C
:1028D0000C68124E2C438D6842EA05220E4DA84228
:1028E00001D0B04206D1CF6822F4006242EA07224A
:1028F00022F48062A84201D0B04207D14D6923F48E
:10290000405343EA05138D6943EA05134360C461EC
:102910004968C1630262F0BD00000140000401404B
:1029200030B5026A22F480520262046A4268C369C6
:102930000D6823F4E64343EA05238D6824F400542C
:1029400044EA0534084DA84202D0084DA84204D1FB
:102950004D6922F4804242EA85124260C3614968AF
:102960000164046230BD0000000001400004014029
:1029700010B5036A046A24F001040462846924F037
:10298000F00444EA021423F00A020A43846102625A
:1029900010BD10B5036A23F0100303628369046A53
:1029A00023F4704343EA023224F0A00343EA011106
:1029B0008261016210BD10B5806B0021C185C184A8
:1029C000FFF748FA10BD70B5846B2068406994F831
:1029D0003D10C0F3C0100025212904D118B1E584B1
:1029E000204600F062F82068406994F83E10C0F379
:1029F0008010222904D118B1E585204600F02EF878
:102A0000206C40F0100020642046FFF723FA70BDD0
:102A100010B50146806B09680968C90516D4002104
:102A2000C1840168143151E8002F22F0800241E88E
:102A30000023002BF5D101680C3151E8002F42F042
:102A4000400241E80023002BF5D110BDFFF726FC22
:102A500010BD10B5806BFFF722FC10BD01680C3172
:102A600051E8002F22F4907241E80023002BF5D1A9
:102A70000168143151E8002F22F0010241E80023DF
:102A8000002BF5D1016B012909D101680C3151E806
:102A9000002F22F0100241E80023002BF5D1202165
:102AA00080F83E1000210163704701680C3151E845
:102AB000002F22F0C00241E80023002BF5D1202195
:102AC00080F83D10704708B590F83E10222901D0DB
:102AD000022008BD82684FF480539A4201D10169F7
:102AE00021B1816A9A421BD04AB10AE00268816A28
:102AF0005268C2F308020A80816A891C08E00269F0
:102B000072B10268526802F07F020A70816A491C41
:102B10008162C18D491E0904090CC18503D019E0E9
:102B200002685268F1E70168CA6822F02002CA60B0
:102B30000168CA6822F48072CA6001684A6922F09A
:102B400001024A61202180F83E10016B012903D067
:102B5000FFF75CFB002008BD0021016301680C3118
:102B600051E8002F22F0100241E80023002BF5D19C
:102B700001680A68D20602D50A6849680091818D09
:102B8000FFF767F9E6E7000070B5044600680169E1
:102B9000E26821F44051114301612169A068E269B2
:102BA00008436169114308432168CA6849F20C630C
:102BB0009A430243CA6020684169A26921F44071C6
:102BC0001143416131492068884202D0304988422E
:102BD00002D1FEF767FB01E0FEF754FBE269002338
:102BE000192164253226B2F5004F626828D0A0FB77
:102BF0000101930F9200FDF738FB0146B0FBF5F0A1
:102C00006FF01802504301EB800006EB0010B0FBA0
:102C1000F5F000F0F002B1FBF5F002EB0012B1FBB1
:102C2000F5F06FF01803584301EB800006EB00103D
:102C3000B0FBF5F000F00F0021681044886070BD13
:102C4000A0FB010192185B41FDF70FFB0146B0FBB1
:102C5000F5F00201B1FBF5F06FF01803584301EBFA
:102C6000800006EBC000B0FBF5F000F0F80002EBCE
:102C70004002B1FBF5F0584301EB800006EBC000C9
:102C8000B0FBF5F000F00700D6E7000000100140AF
:102C9000001401400148FFF7DFB800008801002060
:102CA000FEE70907090E002804DB00F1E02080F8A8
:102CB0000014704700F00F0000F1E02080F8141DB0
:102CC0007047704713B5012269460348FFF7A0FA21
:102CD0000028F8D100981CBD88010020FEF7A6F955
:102CE000FFF7A6FCFFF71EFBFFF7DCFAFFF7FCFA85
:102CF000FFF75AFCFFF798FBFFF72CFCFFF708FCE7
:102D0000FFF7B4FB002211461420FEF7EFF9142060
:102D1000FEF7DEF9002211463720FEF7E7F93720EB
:102D2000FEF7D6F90248FDF717FBFFF75FFCFEE759
:102D3000602D00084FF04070E1EE100A7047000669
:102D4000101600061016000000000000000001022E
:102D50000304060708090000000001020304000044
:102D60000D0A2A2A2A2A2053657269616C204F7540
:102D700074707574204D6573736167652062792086
:102D8000444D41202A2A2A0D0A2020205541525420
:102D900020444D412054657374200D0A2020CED26A
:102DA00020CED2CAC7CED2CAC7000000CC2D0008A0
:102DB0000000002030000000C4010008FC2D0008C5
:102DC0003000002078090000E00100080000000049
:102DD0000100000010000000000000000024F400CA
:102DE00000000000000000000000000000000000E3
:0C2DF000000000000000000000000000D7
:040000050800018965
:00000001FF
